:020000040000fa
:10000000f8ff0220855e0000a373000083750000e6
:10001000197a00001b7a00001d7a00000000000021
:10002000000000000000000000000000037000005d
:10003000fb78000000000000037000005d7300000a
:1000400003700000037000000370000003700000e4
:1000500003700000037000000370000003700000d4
:1000600003700000037000000370000003700000c4
:10007000e5730000057400000370000003700000c9
:10008000037000000370000003700000257400007e
:100090000370000003700000037000000370000094
:1000a0000370000003700000037000000370000084
:1000b0000370000003700000037000000370000074
:1000c0000370000003700000037000000370000064
:1000d0000370000003700000037000000370000054
:1000e000037000000370000000000000000000002a
:1000f00000000000037000000370000003700000a7
:100100000370000003700000037000000370000023
:1001100003700000037000007535000075350000a5
:100120007535000075350000037000000370000095
:1001300003700000037000000370000003700000f3
:1001400003700000037000000370000003700000e3
:1001500003700000037000000000000000000000b9
:10016000000000000000000000000000000000008f
:10017000000000000000000000000000000000007f
:1001800003700000037000000370000003700000a3
:1001900000000000157300000370000003700000f1
:1001a0000370000003700000037000000370000083
:1001b0000370000003700000037000000370000073
:1001c0000370000003700000037000000370000063
:1001d0000370000003700000037000000370000053
:1001e000037000000370000003700000c571000080
:1001f0000370000003700000037000000370000033
:100200000370000000000000000000000370000008
:100210000370000003700000037000000370000012
:100220000370000003700000037000000370000002
:1002300003700000037000000370000003700000f2
:1002400003700000037000000370000003700000e2
:1002500003700000037000002537000003700000e9
:020000040000fa
:10026000f8b500bff8bc08bc9e467047996c00000a
:10027000f8b500bff8bc08bc9e467047756c00001e
:020000040000fa
:100280002de9f0414ff6ff72ad4b1a800122ad4bc4
:100290001a7010f0100736d0ab4a137823f0100311
:1002a000137001270e4600f00f05a74b1c7805ebd5
:1002b000041404f0ff04442c0fd000f2a482222c7a
:1002c00000f09b8240f29881242c40f093829f4959
:1002d0009f4804f023f9804648b99e4b187802f0f5
:1002e0001dff1ffa80f8b8f1000f00f0f982964b5d
:1002f0001b78042b00f0f480082b00f0ed80022b1b
:1003000040f0f880f0e0904b1b7813f0100f05d010
:1003100000f00f02012a01d0bde8f08103f00f03c5
:10032000894a1370bee700228b4b1a704ff01308f6
:10033000e3e006f0e9fe894b1b78002b00f0ca834e
:1003400005f0d0fb804648b1b8f1ff0f00f0c5833f
:100350007c4b1b7873b103f0d5ffcee00022794bc4
:100360001a7007f04dfb80460028edd101227c4b2e
:100370001a70c2e007f046fbede701f00ffb804684
:1003800048b1b8f1ff0f00f04c826e4b1b789bb167
:1003900004f0fafdb1e000226a4b1a70714807f0d0
:1003a00033fb80460028ecd16e4b188806f0f2fd36
:1003b00001226d4b1a70a0e007f028fbe8e706f079
:1003c0005ffb804648b1b8f1ff0f00f031825d4b12
:1003d0001b7873b107f036fa8fe00022594b1a7080
:1003e00007f016fb80460028edd101225f4b1a7002
:1003f00083e007f00ffbede707f00cfb07f022fab4
:100400004ff000084f4b83f8008076e007f002fbc6
:10041000804607f017fa00224a4b1a70b8f1000f15
:1004200040f0148207f0f2fa04f0aefd4ff000083d
:10043000444b83f8008060e007f0ecfa804607f058
:1004400001fa00223f4b1a70b8f1000f40f0008211
:1004500007f0dcfa804604f097fd0022394b1a7051
:10046000b8f1000f40f0f68103f04cff07f0cafa34
:1004700080460022384b1a702123b8f1ff0f3cd17f
:1004800001213b4a11703b4a1380c8222c4b1a8031
:1004900082e00022304b1a7077b92b4b1b7813f097
:1004a0000c0f00f0cd81294b1b884bb9284b1b88c2
:1004b00063b94ff0fe0820e0204607f0b1faece700
:1004c000022006f0edfd4ff0fe0816e0032006f0d6
:1004d000e7fd4ff0fe0810e007f09cfa07f0b2f9d4
:1004e00007f094fa04f050fdb8f1160f16d002226e
:1004f000154b1a70b8f1ff0f3ed0134b187800f06f
:100500000f03ab4271d0b8f1000f40f0c181002e53
:1005100040f0a2810c4b1d70b046c7e103f0f2fe23
:1005200007f070fa002006f051fd012006f04efda4
:100530000122054b1a70e0e74ff01308dae700bf1d
:10054000b20000207a0000207b0000207c00002008
:10055000aa000020c0000020080200203907002067
:100560005a01002092000020ba000020b5000020af
:10057000a8000020760000200122d14b1a70d14b38
:100580001c80242c18d014d8123c94423ff67daf26
:100590004ff4fa62cc4b1a80cb48b0f90030cb490b
:1005a00081fb0321da17c2eba1029b1a0380bde88d
:1005b000f081482c7ff469af42f22832c24b1a8096
:1005c000eae74ff0130898e707f024fa07f03af942
:1005d0004be1022006f0fafc51e1032006f0f6fca4
:1005e0004de10422ba4b1a705be10021b44b197043
:1005f00003f0eefcbde8f081122c00f0fe8000223a
:10060000b04b1a80a4f11103772b00f2168101a2de
:1006100052f823f093040000330300003905000072
:10062000350800003b0800003b0800003b080000c4
:10063000350800003b0800003b0800003b080000b4
:100640003b0800003b0800003b0800003b0800009e
:100650003b08000069040000990400003508000010
:100660007b0300003b0800003b0800003b08000043
:10067000350800003b0800003b0800003b08000074
:100680003b0800003b0800003b0800003b0800005e
:100690003b08000027030000350800003b0800006d
:1006a000350800003b0800003b0800003b08000044
:1006b000350800003b0800003b0800003b08000034
:1006c0003b0800003b0800003b0800003b0800001e
:1006d0003b0800005104000025040000350800001c
:1006e000990400003b0800003b0800003b080000a4
:1006f000bf0300003b0800003b0800003b0800006f
:100700003b0800003b0800003b0800003b080000dd
:100710003b0800003b0800003b0800003b080000cd
:100720003b0800003b0800003b0800003b080000bd
:100730003b0800003b0800003b0800003b080000ad
:100740003b0800003b0800003b0800003b0800009d
:100750003b0800003b0800003b0800003b0800008d
:100760003b0800003b0800003b0800003b0800007d
:100770003b0800003b0800003b0800003b0800006d
:100780003b0800003b0800003b0800003b0800005d
:100790003b0800003b0800003b0800003b0800004d
:1007a0003b0800003b0800003b0800003b0800003d
:1007b0003b0800003b0800003b0800003b0800002d
:1007c0003b0800003b0800003b0800003b0800001d
:1007d0003b080000390400000d040000350800004b
:1007e000f90300003b0800003b0800003b08000044
:1007f00099040000422c7ff402af022002f08efc2c
:100800001ffa80f86fe5822cf7d006d9842c3ff4cc
:1008100064ad882c3ff461adf1e6482c3ff45dad4a
:10082000ede624220121264b1970264b1a80c3e6df
:100830004822f7e74ff011085fe64ff012085ce638
:100840004ff0fe0859e64ff0120856e6822314e6f0
:10085000812312e6412310e6284310f0080f14d03c
:100860001c4b1b78002b7ff4afae1b4b1b88002b5f
:100870007ff4afae194b1b88002b7ff4aeaeb8f1fe
:10088000000f09d1002e3ff445ae45f0100541e6ba
:10089000284310f0080fe3d10d4b1b78082b3ff4d1
:1008a000a0ae0b4a137843f0100313700022044be0
:1008b0001a704146064b187803f08afbbde8f081b8
:1008c000a800002076000020b2000020676666665f
:1008d0007b000020b50000207c000020aa00002042
:1008e0000022814b1a80a4f11103772babd801a20f
:1008f00052f823f09304000033030000c305000006
:1009000035080000470800004708000047080000bd
:1009100035080000470800004708000047080000ad
:10092000470800004708000047080000470800008b
:100930004708000069040000990400003508000021
:100940007b0300004708000047080000470800003c
:10095000350800004708000047080000470800006d
:10096000470800004708000047080000470800004b
:100970004708000027030000350800004708000072
:10098000350800004708000047080000470800003d
:10099000350800004708000047080000470800002d
:1009a000470800004708000047080000470800000b
:1009b000470800005104000025040000350800002d
:1009c000990400004708000047080000470800009d
:1009d000bf03000047080000470800004708000068
:1009e00047080000470800004708000047080000cb
:1009f00047080000470800004708000047080000bb
:100a000047080000470800004708000047080000aa
:100a1000470800004708000047080000470800009a
:100a2000470800004708000047080000470800008a
:100a3000470800004708000047080000470800007a
:100a4000470800004708000047080000470800006a
:100a5000470800004708000047080000470800005a
:100a6000470800004708000047080000470800004a
:100a7000470800004708000047080000470800003a
:100a8000470800004708000047080000470800002a
:100a9000470800004708000047080000470800001a
:100aa000470800004708000047080000470800000a
:100ab00047080000390400000d040000350800005c
:100ac000f90300004708000047080000470800003d
:100ad000990400004ff051080fe50122034b1a70f2
:100ae0001222014b1a8053e576000020a800002056
:020000040000fa
:100af0002de9f04f89b0a54b1c7824b1092420467c
:100b000009b0bde8f08f0546b0f808805ffa88f7b5
:100b100007f0e006202e27d01ad9402e24d0602ed0
:100b200018d19b4b1b78b34200f0d1814ff00009e4
:100b3000cdf808904ff0030a0195029b00931ffa2d
:100b400089f307f010023146504603f0dfffd6e785
:100b5000002ee6d04ff00009cdf808904ff0030ac0
:100b6000baf1ff0fcbd0e7e7b5f800a0b5f80ab0af
:100b70004fea182303eb0b239bb203934fea1b2b83
:100b8000184606f0affc0490002800f0a283037b17
:100b90009b4506d94ff00009cdf808904ff0110a97
:100ba000cae707f01003059302465946039805f07b
:100bb0001ff90290402e0fd0202e2bd00694ddf886
:100bc000089000230793059b002b56d0bbf1010f23
:100bd00051d94ff0050aafe7baf10a0f01d0082446
:100be0008de7431e032b08d805f10c030793002360
:100bf000ab81eb8106948146e5e7664b1b88a3f148
:100c00001009029b4b4500f2448305f11003079342
:100c10000694d8e717f0020f0dd0baf10a0f01d0f1
:100c200008246ce7c7f38103c3f1040905f10c0341
:100c300007930694c7e7ea89ab8903eb0249564b51
:100c40001b8809f110029a4204d9063b9a4507d045
:100c5000082454e709f10a039a4501d008244ee715
:100c600005f110030793aaf10a03994594bf0023e5
:100c700001230693a7e701230593069b002b42d18e
:100c8000029b4bb9454bbdf80c201a80444b83f8ae
:100c900000b0444b049a1a60402e00f0e380059b9c
:100ca0000193079b0093049b4a465946039801f021
:100cb000a7f98246ff287ff43faf01233a4a137019
:100cc0003a4a9df814101170394a82f800b0394a36
:100cd000bdf80c101180384ac2f80090374a0799c5
:100ce0001160049a116a364a1160284a1370354b14
:100cf0001d602b8923f0ff0308f0f00843ea080386
:100d00002b81069cfbe601232f4a13702f4a137098
:100d10002f4b9df814201a70204bbdf80c201a8020
:100d20001f4b83f800b01f4b049a1a60402e294bca
:100d300006bf029a1a60c3f80090274b186808b1e2
:100d400006f0c4fd234b1868013020f0010006f0c6
:100d5000b5fd214b186080b1402e41d0aaf10a099f
:100d60004a4605f1100106f09afc0022084b1a7061
:100d7000a2461a4bc3f80090f2e6059b002b14bf65
:100d80004ff0050a4ff0040ad6e600bf3a070020ec
:100d90002f02002064010020760100204402002080
:100da0005c020020580200202c0200202d020020ae
:100db000600200205e0200203c0200201802002099
:100dc0002802002038020020210200202e020020ec
:100dd0002002002024020020400200201c020020eb
:100de000059b01930090049b029a5946039801f0d9
:100df0008ffb824658b3ff28bbd10422b84b1a7030
:100e0000b84b9df814201a70b74b83f800b0b74b5d
:100e1000bdf80c201a80b64b029a1a60b54b1a68be
:100e2000b54b1a60049bda69b44b1a600122b44bcb
:100e30001a70b44b1d602b8923f0ff0308f0f008f3
:100e400043ea08032b816022af4b1a7057e64a46eb
:100e5000a84b196805f1100006f021fc6022aa4b8e
:100e60001a7086e7059b0193079b0093049b029ae7
:100e70005946039801f04cfb8246ff287ff45cae94
:100e80000322974b1a70974b9df814201a70964bbb
:100e900083f800b0954bbdf80c201a80944b029a51
:100ea0001a60954b079a1a60049bda69934b1a6093
:100eb0000122934b1a70934b1d602b8923f0ff0383
:100ec00008f0f00843ea08032b81069c17e6002e81
:100ed00040f03d818d4b1a7808f010039a4200f0e3
:100ee000f2818b4b1b88093b9bb207f010028749ac
:100ef0000a70804a1068002800f0e881854a11686d
:100f0000854a1268521a18f0010f1ad09a4200f25c
:100f1000c5812b88033b9a4200f2c0816fea680ebc
:100f20000ef0070e724505d0072a40f2b7819a42ab
:100f300040f0b4814ff0000e784b83f800e091460a
:100f400009e04ff0010cdff8d4e18ef800c09946bb
:100f50009a4240f2a38111f0010f4ed149086a89eb
:100f60004fea182343ea022320f8113009f1010067
:100f7000400801281ad901218846dff898c1dff816
:100f800074e105eb4102dcf8003008eb5308b2f8dd
:100f900008a053891b0243ea1a23def8002022f836
:100fa0001830013189b288468142ead35b4b93f80d
:100fb0000080b8f1000f41d00a232b7000236b7022
:100fc000eb88c3f30b0343f44053eb804f4b1b7888
:100fd000002b00f0ad8030232b7200236b724f4b3f
:100fe0001b78012b00f0a98000234a4a1360464a6f
:100ff0001370b246994602939ee5490810f81130e5
:1010000020f811303b49434802685208d1f800e00b
:101010002b8923f0ff033ef812c043ea0c032ef89d
:101020001230036823f001030233086809f1ff322c
:1010300005f10a01184406f032fbb7e7384bd3f844
:1010400000c0354a12683749097837480088dff808
:10105000dce09ef800e0cdf804e0dff898e0def890
:1010600000300093634600f0cbff8246ff2829d171
:1010700002221b4b1a702d4b1a781a4b1a70294bef
:101080001a78194b1a70284b1a88184b1a80224b61
:101090001a68174b1a60174b1a68174b1a60204bc7
:1010a0001b681a6a154b1a600122154b1a70154bf2
:1010b0001d600023194a1370134a1370154a1360f8
:1010c00044461ce5dff82c80d8f8000006f0fefb53
:1010d0000023c8f80030baf1000f3ff46dafdfe035
:1010e0002c0200202d020020600200205e02002061
:1010f0003c020020400200201802002028020020ac
:101100003a070020380200202f0200202e02002083
:10111000760100201c020020240200202102002071
:10112000580200205c02002044020020200200201f
:1011300020232b7200236b7251e76d4a13684b44d6
:101140001360b2464ff00009cdf80890f4e42a7a13
:1011500002f01002674b1b78934200f0c180664b8f
:101160001b88093b9bb263490a709946604a126822
:101170006249096813448b4286bfa1eb0209002132
:1011800001215f4b19705ffa88f8a5f8088012f00a
:10119000010354d14fea520e5a4a106830f81e200b
:1011a00048ea0228a5f808805fea590c13d000210c
:1011b0001a46724400eb4203b3f8028030f8123052
:1011c0001b0a05eb410243ea08235381013189b22e
:1011d0000a468c45edd8eb88c3f30b0343f4405328
:1011e000eb802b8903f47f432b81454a1278002a38
:1011f0003ad0404a127813432b81b9f1060f3ad8fe
:101200000a232b7000236b70c9f107032a8942ea75
:1012100043032b813a4b1b78012b30d0dff8e4805d
:10122000d8f8000006f052fb0023c8f80030304a1e
:101230001360354a1370a246994602937ce4314b01
:101240001968520831f8123023f0ff0343ea080806
:10125000a5f8088001eb420109f1ff32023105f1e6
:101260000a0006f01cfab6e7224a127842f00102a0
:1012700013432b81c1e709f103032b80cae71c4a02
:1012800013684b441360a2464ff00009cdf8089054
:1012900052e4012306930023079394e44ff00e0acf
:1012a0000023174a1370184a1370164b186820b1a0
:1012b00006f00cfb0022134b1a6000230c4a13604b
:1012c000994602934ce44ff0010ae9e74ff0030a14
:1012d000e6e74ff00009cdf808904ff0080a2be43c
:1012e0004ff00009cdf808904ff0010a24e400bf48
:1012f0001c0200202e020020640100202402002095
:0c13000021020020400200202f020020eb
:020000040000fa
:10130c00d40600201c00000000000000d3060020c2
:10131c00010000000000000000000020020000009e
:10132c00000000001c07002010000000000000005e
:10133c00ac060020270000000100000000000001a6
:10134c000000010000020000010000040000000089
:10135c00000000000000000000000000000300007e
:10136c000100000060050020c0000000000000002b
:10137c00a60700200100000000000000040000206f
:10138c002800000000000000840700200800000076
:10139c00000000008c070020080000000000000086
:1013ac002c0000200100000000000000800600203e
:1013bc002c000000000000003c0700200c00000086
:1013cc000000000094070020040000000000000052
:1013dc000607002002000000000000009807002013
:1013ec000800000000000000480400201801000064
:1013fc0001000000000000000000000001162100a8
:10140c0002090000e0770000706e000078070020f1
:10141c0000000000000000000000000000000000c0
:10142c0000000000001a210002090000f4770000ff
:10143c00246f000060070020000000000000000086
:10144c00000000000000000000000000121c06005c
:10145c000108000074790000a0750000b807002096
:10146c000000000000000000000000000000000070
:10147c0000000000131c0600010800008079000029
:10148c00bc750000bc07002000000000000000003c
:10149c0000000000000000000000000000602a00b6
:1014ac000209000008780000647400005407002052
:1014bc000000000000000000000000000000000020
:1014cc000000000010702a00020900001c780000c7
:1014dc00d87500006c070020000000000000000020
:1014ec00000000000000000000000000ffff0000f2
:1014fc0000000000000000000000000000000000e0
:10150c000000000000000000000000006802002045
:10151c00e0010000010000000000000000000000dd
:10152c000010070000070000b4790000507900009b
:10153c00b0070020000000000000000000000000c8
:10154c000000000000000000011005000007000072
:10155c00bc7900009c780000060700200000000009
:10156c00000000000000000000000000000000006f
:10157c000810090000070000c47900005c79000025
:10158c00f006002000000000000000000000000039
:10159c000000000000000000091009000007000016
:1015ac00cc7900007c770000a80700200000000028
:1015bc00000000000000000000000000000000001f
:1015cc000a10090000070000d47900009077000091
:1015dc00ac0700200000000000000000000000002c
:1015ec000000000000000000181023000409000097
:1015fc0084740000346e0000080700200000000016
:10160c0000000000000000000000000000000000ce
:10161c00f1102a0002090000cc770000746d000064
:10162c00480700200000000000000000000000003f
:10163c000000000000000000f8101b000007000074
:10164c00dc790000a477000098070020ed6b000007
:10165c00000000000000000000000000000000007e
:10166c00001c05000408000068790000b877000031
:10167c00a007002000000000000000000000000097
:10168c000000000000000000321c290020090000ae
:10169c001056000024460000c40100200000000089
:1016ac00000000000000000000000000000000002e
:1016bc00331c2900200900001056000024470000ac
:1016cc00800100200000000000000000000000006d
:1016dc000000000000000000ffff00000000000000
:1016ec0000000000000000000000000000000000ee
:1016fc000000000000000000f006002016000000b2
:10170c000100000053414d44353120457468657229
:10171c0043415420536c617665000000a8070020fb
:10172c000400000001000000312e3000ac07002046
:10173c000400000001000000312e300008070020da
:10174c00140000000100000004000000d804000098
:10175c00539200000100000001000000a0070020cf
:10176c000600000001000000040002010403000058
:10177c00b0070020040000000100000089130000e5
:10178c00300000200800000000000000a707002027
:10179c0001000000000000003800002035000000af
:1017ac000000000070000020040000000000000099
:1017bc00390700200100000000000000b4070020e1
:1017cc000400000000000000740000205000000025
:1017dc0000000000c40000202800000000000000f1
:1017ec00ec00002094000000000000002c070020fa
:1017fc000d00000001000000537562496e646578ad
:10180c002030303000000000480700200c000000a1
:10181c0001000000020000000100000004000000b4
:10182c00800100208e000000000000005407002002
:10183c000c0000000100000002000000000000008d
:10184c0000000000600700200c00000001000000f8
:10185c000200000020010060200200606c070020e4
:10186c000c0000000100000002000000000000005d
:10187c0000000000780700200c00000001000000b0
:10188c00020000002001107020021070b807002028
:10189c00040000000100000001000116bc0700203c
:1018ac0004000000010000000100001a10020020da
:1018bc0004000000000000003a07002001000000b6
:1018cc0000000000140200204d0000000000000089
:1018dc00c00700200400000000000000c407002026
:1018ec000400000000000000c807002004000000f5
:1018fc0001000000200600202006002060000000ef
:10190c0001000000000000000000000000000000ca
:10191c0000000000000000000000000000000000bb
:10192c0000000000000000000000000000000000ab
:10193c00000000000000000000000000000000009b
:10194c00000000000000000000000000000000008b
:10195c00000000000000000000000000000000007b
:10196c0000000000640200200400000000000000e1
:10197c00cc07002004000000000000000000000064
:10198c0000000000222222222222222222222222b3
:020000040000fa
:10199c00f0b585b00023029301939a4a94899a4a30
:1019ac0095899a4a13809a4a1370022005f01cfefe
:1019bc000268984b1a80436803f00203002b0cbf9b
:1019cc0003260126032005f00ffe0368924a1380bc
:1019dc00426802f00202002a0cbf032201229bb2d1
:1019ec008e49088800fb02328d4909888a420bdd3a
:1019fc008c4f3f880f44bb4206da0221032002f0d1
:101a0c0089ff1e2005b0f0bd874f3f88ba4204dd28
:101a1c00864a12883a449342efdb7e4ab2f800e0e1
:101a2c00834a128806fb02e6b1420ada7d4a128822
:101a3c0011448e4505da0221084602f06bff1d2089
:101a4c00e0e7b74204da794a12881744be45f2db64
:101a5c00b34202da03449e45eddb04224ff41861d5
:101a6c0003a803f01dfabdf80c30039304224ff4c5
:101a7c001a6102a803f014fa042240f6a4110deb2b
:101a8c00020003f00dfa019e5e4b59885e4b5a889a
:101a9c00039b13f4106f00f0748113f4007f01d1d9
:101aac003020afe72c400bd014f0040f00f059811c
:101abc0014f0080f04d113f4806f01d03020a1e78b
:101acc00029850b14f4d2d69854201d9362099e7c6
:101adc00584da84201d9362094e703f4c065b5f5fa
:101aec00c06f10d05448007800bb514a11880029af
:101afc0052d14a4a1488002c00f0b88113f4806f3c
:101b0c005dd102224be1002eecd08642c0f0378131
:101b1c0014f0100f01d1302074e70120464c2478ca
:101b2c00002ce2d013f4806f04d038e113f4806ff2
:101b3c000ad10020032900f01a81032a00f0198130
:101b4c0013f4007f04d03be013f4007f30d100206d
:101b5c00022900f01081022a00f00f81032900f005
:101b6c0021810c460ee0324b1c8834b12b4b1a8869
:101b7c00002a40f03281012404e0284b1a880032fc
:101b8c0018bf01222d4b1b78002b40f07581002cc7
:101b9c0040f01481292035e7002840f013811f4aba
:101bac0012887ab113f4806f04d10222114607e037
:101bbc000020f4e003220221f1e00322f2e00322f0
:101bcc00022908d1029b0f494b624b600e494b62b4
:101bdc004b600224eee00c46d4e70120184a10803a
:101bec00b1fbf3f082b2174c228003fb1013002bd5
:101bfc0000f0c8810132134b1a80c3e10121104b54
:101c0c001980bae1c401002080010020920000205c
:101c1c00b000002088000020c2000020aa00002094
:101c2c006e010020640100205c0100207601002080
:101c3c007c000020000050c308020020740000202b
:101c4c00ac000020a600002004a8002340f8103da2
:101c5c0004224ff4806103f023f9009b9ab2cab1bd
:101c6c000232a3b246f2a71102fb0313db08904a1f
:101c7c00a2fb03231b0a8f4a138000228e4b1a806f
:101c8c008c4b1b88002b00f093818c4b1b782bb951
:101c9c001f20b7e60022874b1a80eee7884b1b7893
:101cac003bb1884b1b8823b1874a138843f480636c
:101cbc0013800023854a1380854a1380854a13803c
:101ccc00854a1380854a1370854a1370854a1380a0
:101cdc00854a1385538582f84030844a1385538591
:101cec0082f84030039a12f4007f18d00299002930
:101cfc0000f0a3804b097e48a0fb0303db09042bf7
:101d0c0017d80120714b188012f4806f07d0019bfb
:101d1c00994240f297806d4b1a886f4b1a80694b31
:101d2c001b88b3b9734b1b88bbb904f0fbfa0020ba
:101d3c0068e65b009bb27048a0fb0303db086348ba
:101d4c000380e1e75b000a22b3fbf2f3624a1380e3
:101d5c0084e0022005f09ef9e4e7032005f09af9ef
:101d6c00e3e730204ee630204ce630204ae63020c7
:101d7c0048e6302046e6302044e6302042e600209b
:101d8c00cce65e4b187800283ff4edae8b1e9bb270
:101d9c00012be8d9931e9bb2012be6d90020032915
:101dac007ff40eaf029b51494b624b604e494b6224
:101dbc004b600324524b1b78002b60d1002a5ed160
:101dcc0029201fe64b4a1288002aebd013f4806faf
:101ddc007ff4f3ae02220321e1e722220124d1e6b3
:101dec00374b1b78002b40f0978000233f494b80ea
:101dfc003d494b8043490b8043490b8043490b8041
:101e0c0043490b80012840f0b880029bf1189e4298
:101e1c00fff4e3aeb1fbf3f082b203fb10134bb94a
:101e2c00511c3a4b1980374b1a80abe00121394bce
:101e3c0019708ce0354b1a80dce612f4806f3ff49d
:101e4c006eaf019b0b445b09294aa2fb0323db0900
:101e5c00042b3ff677af01221f4b1a801e4a1b4bf7
:101e6c001988138803eb5103138058e7244b1b7814
:101e7c000bb92920c6e522460cb9002ab0d00121a5
:101e8c000f4b19700f4b1b88002b4ad04ff48061fd
:101e9c000d4b1980a31e9bb2012b4ed801211d4b5b
:101eac00197057e04ff48061074b1980144644e0d9
:101ebc0089b5f814b800002078000020bc00002080
:101ecc00bb0000207c000020920000208a00002033
:101edc0080000020b600002090000020940000201c
:101eec00b10000208e00002080010020c4010020e1
:101efc00c55a7c0aaa000020cdcccccc080200200c
:101f0c0074000020a600002084000020ac000020fb
:101f1c00be000020b4000020294b1c88002cc1d12d
:101f2c002246284b1b881bb14ff40061264b1980ad
:101f3c00a31e9bb2012b7ff679af931e9bb2012b94
:101f4c0008d80121214b19701d4b1b8813b9002196
:101f5c001d4b19801e4b5c801e4b5a8000231e4962
:101f6c000b801e490b801e490b801e490b800128db
:101f7c003ff44baf022c3ff441ae032a02d00122b6
:101f8c00154b1a800023184a138004a840f8103d02
:101f9c0004224ff4846102f083ff009c084b1b88e1
:101fac001bb1a3b2002b7ff44fae00220f4b1a8053
:101fbc000f4b1b78002b3ff471ae1f2022e500bfa6
:101fcc007c000020aa00002092000020b400002019
:101fdc00c401002080010020a60000208400002005
:101fec00ac000020be0000200c020020b800002035
:041ffc00bc00002005
:020000040000fa
:102000002de9f04f8bb004900c4616461d46ddf8c6
:1020100050809df854b01ffa81fa9b89c3f30322c4
:102020000692dbb20593072a00f03e821946ab699f
:1020300093f80090b9f1000f40f04182a0f5e05311
:10204000103b9bb21f2b40f23882a0f5b0539bb2dd
:10205000b3f5007fc0f04082a0f5d0539bb2b3f53a
:10206000007fc0f03c824ff23003984208bf89469f
:1020700025e2f4b90eb198f80090079439e02146b2
:10208000284605f07df98288b24b1b7803f00e03d9
:1020900013eaa2030bd112f0380f02d01a230393d4
:1020a00016e2002a0cbf05230723039310e25cb35a
:1020b000d1460499a1f5e053103b9bb21f2b12d9d6
:1020c000a1f5b0539bb2b3f5007f0cd3a1f5d0536b
:1020d0009bb2b3f5007f06d34ff23003994202d092
:1020e0000023079305e0ab691b78003318bf012379
:1020f00007932f6a5fb1cdf800b0434632462146c0
:102100000498b8470390e3e1d1460794f1e7002e25
:1021100000f0a081ca4500f2a08154460723039332
:1021200000230893049ba3f5e053103b9bb2099353
:1021300031e1102a40d0202a40f05c8110f00f0fce
:1021400040f0a081079b5bb13288b8f800309a421a
:1021500040f09b817288b8f802309a4240f0988132
:10216000b8f800303380b8f80230738008f1040802
:10217000012308930be1022b17d8002b40f091802c
:10218000bbf1000f00f06f817b8813f00f0f05d0bb
:10219000184410f00f0f08bf08f10208c3f303132f
:1021a00008eb430801230893f1e0032b04d0042b30
:1021b000c4d073e0072bc1d210f00f0f40f059814b
:1021c000b8f80070079b1bb13388bb4240f05481c4
:1021d000099b1f2b0ed8a7f5b0539bb2b3f5007f18
:1021e00008d3a7f5d0539bb2b3f5007f02d3002fdd
:1021f00040f04581049ba3f5e153123b9bb2012bb8
:102200007bd9378008f1020801230893bfe00b2b2c
:102210002bd943e02d2b44d021d81e2b41d018d8e8
:10222000152b01d01b2b39d110f00f0f40f033814b
:10223000b8f800303380b8f802307380b8f8043052
:10224000b380b8f80630f38008f10808012308933a
:102250009de01f2bb0d0202b3ff470af1ee0372b3a
:1022600015d9a3f51873032b18d810f00f0f40f0f1
:1022700018817a880732d2104146304605f00ffaad
:102280007b881b0908eb4308012308937fe0302b70
:1022900007d22e2b90d02f2b3ff450af182303934f
:1022a00016e17a882c4b33f8122000f00f0e02fa58
:1022b0000ef1338823ea01031bb2bbf1000f10d0eb
:1022c000b8f8002011400b439bb233807b88184440
:1022d00010f00f0f40f0b48008f1020801230893ba
:1022e00055e0b8f8001031ea020c40f0bf800a4017
:1022f00002fa0ef213439bb2e7e7012c1bd0082c25
:102300007ff47faf154a0023536115491161536073
:10231000144a53611161536017f0020f3ff471af1b
:102320000e4a5385138582f840300e4a5385138533
:1023300082f8403065e73388bb4207d039460498bd
:1023400001f0f6fb0390002840f0c2800122064b0a
:102350001a7056e77b00002004750000c4010020bd
:10236000a08601008001002008020020002c62d01d
:102370007b8813f00f0f05d0184410f00f0f08bf23
:1023800008f102081b0908eb4308182303930134e2
:10239000a4b24c4557d8e6b23146284604f0f0ffc7
:1023a00007462946304602f099ff584b1b7803f048
:1023b0000e03ba8813eaa203d8d0ae69002c00f04d
:1023c0009180c0f30f1306eb4306a24507d0bbf183
:1023d000000fdcd0a245dad8002c00f087803b88c3
:1023e000b3f5e06f06d37a88082a3ff6a2ae02f171
:1023f0002f039bb2112b3ff417af3ff60baf052b0a
:102400003ff44faf7ff6b7ae082b7ff6d3ae092b64
:102410007ff4fdae10f00f0f40d17a880732d21052
:102420004146304605f03bf97b881b0908eb430821
:1024300001230893abe708f1020818230393a6e7ea
:1024400001230893a3e7089b002b039b18bf0023dd
:1024500003933de0002303933ae00723039337e01f
:102460001323039334e01823039331e012230393df
:102470002ee0052303932be01c23039328e0122373
:10248000039325e00523039322e01c2303931fe01d
:102490001c2303931ce00523039319e005230393f6
:1024a00016e00523039313e0bbf1000f02d00523d0
:1024b00003930de04ff0000905e0ddf81490bbf147
:1024c000000f7ff4d6adca457ff6d9ad1123039333
:1024d00003980bb0bde8f08fddf81490efe7ddf85e
:1024e0001490ece7baf1000f7ff471af069b072b55
:1024f0003ff475afb8f80030dab205999142afd326
:10250000338008f102080123089340e77b00002094
:020000040000fa
:102510002de9f04f89b00590049115469946129c1b
:102520009df84ca01ffa81fb9f89c7f30328ffb2d7
:10253000b8f1070f00f0bc81b0f5805fc0f0bf813b
:10254000d9f818301f78baf1000f1fd1bb4505d953
:1025500011230293029809b0bde8f08f0499484610
:1025600004f00eff838813b905230293f2e79a4a19
:10257000127802f00e0212ea430214d103f00703ac
:10258000002b0cbf06231a230293e3e70697d9f822
:102590001c605eb1cdf800a023462a460499059838
:1025a000b0470290d6e706975f46f0e7059bb3f584
:1025b000805f04d2049b93b902935e4605e05f45b9
:1025c0000ad35e46002302930493cdf81c80cdf815
:1025d0000c90ddf814901ee100230293bae7049eec
:1025e0003146484604f0ccfe43880733db109db2e9
:1025f00006f1804b0bf1ff3bd9f8182052f82b1055
:1026000011f0010f25d021f0010632466b0811d0e0
:10261000013b9bb201335f00e01931460b881b0a76
:10262000238031f8022f43ea022324f8023ba04220
:10263000f4d1f21915f0010f00f02581238803f47d
:102640007f432380128843ea1223238000230293ce
:1026500080e70a8822804a8862809bb21a1f043170
:10266000201d05f01cf80023029373e7079b072b3e
:1026700000f04581bdf8183024f8023bc7e0bef1f8
:10268000100f31d0bef1200f40f04c8118f00f0f29
:1026900040f0028132f8103023804b88638004348c
:1026a00001230493b3e0022b15d8002b6ed1baf1ad
:1026b000000f00f0eb806b8813f00f0f04d09844ec
:1026c00018f00f0f08bf0234c3f3031304eb4304e5
:1026d000012304939be0032b06d0042bd6d01823b0
:1026e000029337e7072bd1d218f00f0f40f0d180bb
:1026f00032f8103024f8023b0123049387e00b2bbf
:10270000edd818f00f0f40f0cd806a880732d21054
:10271000204604f0c4ff6b881a0904eb420413f04e
:102720000f0f00f0a38023782380012304936ee031
:102730002d2b2bd01cd81e2b28d014d8152b01d014
:102740001b2bccd118f00f0f40f0a98032f81030bd
:1027500023804b8863808b88a380cb88e3800834f8
:102760000123049353e01f2bbed0202b8ed0b6e75d
:10277000372b04d9a3f51873032bc2d9afe7302b3d
:1027800004d22e2bb0d02f2b80d0a8e708f00f0e4c
:102790006b88124931f8133003fa0ef39bb232f80a
:1027a0001020bef1000f01d1002020802088baf156
:1027b000000f0bd01340034323806b88984418f01c
:1027c0000f0f50d102340123049320e0134043fa49
:1027d0000ef303432380f0e77b0000200475000024
:1027e0006b8813f0f00f0ad00023194624f8021f5b
:1027f0000133dbb26a88c2f303129342f6dbab8883
:1028000003f00703002b0cbf06231a2302930136a3
:10281000b6b2b74230d3002e58d0b9f5805f55d349
:10282000f5b20399284602f059fd804629460398df
:1028300004f0a6fd0546504b1b7803f00e0382887a
:1028400013ea420351d118f00f0f00f092806b8809
:1028500013f00f0fc4d0984418f00f0fc0d100230d
:1028600063800234bce701230493d0e7012304937f
:10287000cde701230493cae7049b002b029b18bffa
:102880000023029366e60023029363e61823029373
:1028900060e6052302935de6052302935ae60523cd
:1028a000029357e60523029354e60523029351e66b
:1028b000baf1000f3ff44aae052302934ae6baf19b
:1028c000000f3ff443ae0523029343e6f1b20398b1
:1028d00004f056fd0546284b1b7803f00e03828852
:1028e00013ea420343d04ff00008b34504d0baf1d5
:1028f000000f8cd0b3458ad8002e3ff4b7ae039baf
:102900009a69c8f30f1002eb40012b88b3f5e06f12
:1029100008d3b5f802e0bef1080f3ff6b0ae0ef1f5
:102920002f039bb2112b3ff40daf3ff601af052be8
:102930003ff42caf7ff6b7ae082b7ff6d3ae092b52
:102940007ff4ddae18f00f0fafd16a880732d210d6
:10295000204604f0a4fe6b881a0904eb420413f02d
:102960000f0f86d023782380012304934fe74ff085
:0c2970000008002323806ae77b000020a1
:020000040000fa
:10297c00f0b585b0044600238df80f30058905f0bd
:10298c007f05052d06d00388072b09d8062318468a
:10299c0005b0f0bd0388092b00f2a4800623f6e7ee
:1029ac00032d00f09f80052d00f09c80012d21d07f
:1029bc0003238df80f309df80f1000220a2323708b
:1029cc006270238923f07f0343f007032381a272f3
:1029dc00e272914b53f82130e360904b1a80022144
:1029ec00204603f01dfb03460028d0d08c4b1c6006
:1029fc000023cce78389052b01d90221f0e7894d0f
:102a0c0000686168a26807c5a2892a8013f0ff03d9
:102a1c000ed10025814b1d8004f10c06e8b203f0a9
:102a2c0003ff26f8020f0135052df7d1122322e002
:102a3c00013bddb2794b1988002934d07a4b1a88c6
:102a4c000c3a92b204f10c0378480088adf80c00f3
:102a5c000139724801800df10f01009103a928463c
:102a6c0002f094ffbdf80c20704b1a806e4b1b8843
:102a7c00063b1b1a9bb223809df80f30002b9ad17a
:102a8c00238923f07f0242f002022281634a1288da
:102a9c006281002a00f0bd8023f0ff0343f0820323
:102aac00238182219ce7284603f0befe4ff480531d
:102abc00adf80c305c4b1988a1f10e0292b204f106
:102acc000e034000904209dd0c398eb2811a701e43
:102adc00014491fbf6f151480180bce700204f49bd
:102aec000880b8e7a38998b2adf80c30b0f5805fd8
:102afc0003d205238df80f305de704f0edfc07469b
:102b0c00002800f08280032d0bd0e689f6b204f089
:102b1c006fff4388dbb29e4234d911218df80f1020
:102b2c004be704f065ff0368c4f80e3000233a4607
:102b3c001946bdf80c0002f0d3f800f10c0292b269
:102b4c00394b1b88063b9a4210dd0c229df80f3046
:102b5c00002b7ff430afa372e3722280238923f021
:102b6c007f0301351d432581022139e704f112034e
:102b7c003a460021bdf80c0002f0b2f800f10c024c
:102b8c0092b2e3e73146384604f0f4fb0368236164
:102b9c008388a382e389dbb2e381384604f028ff03
:102bac004388c3f30323083b9bb2012b10d90023aa
:102bbc003a463146bdf80c0002f092f800f11002d2
:102bcc0092b2194b1b88063b9a4212dd1022bde7cc
:102bdc00002eecd1164a166850689168c4f816603d
:102bec00c4f81a00c4f81e10127b84f822201c2290
:102bfc00ace704f116033a463146bdf80c0002f07e
:102c0c006ff800f1100292b2a0e708238df80f3094
:102c1c00d1e60221e4e600bf9864000034020020f3
:102c2c0070000020480200206401002014020020e3
:042c3c002c07002041
:020000040000fa
:102c40002de9f04f85b0834692460023029301930d
:102c50008df803308df8023001f0030502f003090e
:102c6000a94419f0030f07d009f1040303f00c0382
:102c7000a3eb09095ffa89f90aeb05044c44a4b2f5
:102c80007f2c06d9e3b243f08003640004f4fe44d1
:102c90001c43adf80c10adf80ea0042203a94ff4ac
:102ca000427001f0b9fe4ff000430393042203a9e0
:102cb0004ff4437001f0b0fe04f042fd0b238df899
:102cc000083000238df8093004238df80a307d4e3a
:102cd0007368db6898470028fad17a4b5b681e68f6
:102ce000032301aa194602a8b04704f0f7fc754e69
:102cf0007368db6898470028fad1734b9df805206c
:102d00001a709df806205a7004a800f80d4d6d4bfe
:102d10005b685b680121984704f0e0fc694e7368ca
:102d2000db6898470028fad1baf17f0f06d8674bc5
:102d3000df780026634c4ff001081fe0240a04a846
:102d400000f80d4d5f4b5b685b680121984704f00c
:102d5000c5fc5c4c6368db6898470028fad1e6e75d
:102d600063689b6841460df10200984704f0b6fc89
:102d70006368db6898470028fad10136be42efd17c
:102d8000504c10e063689b6839460df1020098478b
:102d900004f0a4fc6368db6898470028fad1013589
:102da000ae42efd1454605f1ff385ffa88f8a5b18c
:102db00063689b6801210df10200984704f08efcc6
:102dc0006368db6898470028fad1b8f1000fe9d0b2
:102dd0003e4b1e7900250127e2e73a4cdff8ec80f4
:102de00014e000238df803301be063689b685146b4
:102df0000df10200984704f071fc6368db689847a6
:102e00000028fad10135af42efd1b2460af1ff36c0
:102e1000b6b2baf1000f20d0002ee2d1ff238df818
:102e2000033063681d6801230df1020219460df19c
:102e30000300a84704f052fc6368db689847002849
:102e4000fad19df802300bf8013b002eddd098f846
:102e5000047000254ff0010ad5e71a4c1b4e10e014
:102e600063689b6849460df10200984704f036fc00
:102e70006368db6898470028fad101374745efd1ee
:102e8000a94609f1ff35edb2b9f1000f14d063681e
:102e90009b6801210df10200984704f01ffc636854
:102ea000db6898470028fad1002de9d096f8048015
:102eb00000274ff00109e1e704f038fc05b0bde858
:102ec000f08f00bf1c07002000000020ac0600208f
:020000040000fa
:102ed00038b5824b1b78002b5fd0814bb3f90030a3
:102ee000002b4ed17f4b1b88c3f30714242b2bd010
:102ef00010d8123b012b00f2ca807b4b1b7803b326
:102f000001f000fa794b1b78002b00f0e280784b3f
:102f10001d88bde0482b40f0ba80764b1b781bb370
:102f2000754b1b78002b00f0bd80744b1b78002b79
:102f300040f0cb80724b1b88002b0cbf1a251b2541
:102f4000b1e004f05ffddbe7674b1b784bb102f0ab
:102f50001bf8664b1b78002b00f0bd80644b1d886e
:102f600096e004f053fdf2e7654b1d88002d40f01c
:102f7000ae800122634b1a7008248be004f04afdf6
:102f800096e0584b1b88242b47d007d8123b012bc7
:102f900000f28580544b1b7823bb38bd482b7ed173
:102fa000514b1b78002bf8d0524b1b78002b55d07f
:102fb000554bb3f90030002befdd544ab2f9002035
:102fc0009a42eadb0023504a1380504a1380464a53
:102fd000137004f01dfd002839d10122494b1a70ed
:102fe000082429e00022404b1a7004f009fd054630
:102ff00060b90122464b1a703a4b1c7814f00f044a
:1030000003d00022354b1a705ae038bdff28c4d0d7
:1030100004f0f8fc01f076f938bd334b1b78002b37
:10302000bbd00022304b1a703a4804f0edfc38b99e
:103030000122394b1a7004240025284b1d703fe0f3
:10304000ff28aad004f0e2fc01f09eff38bdff2863
:10305000a3d004f0dffc04f0f5fb38bd284b1b883f
:103060001bb1264b1b78002b97d000221e4b1a70e9
:1030700004f0cefc20b90122224b1a700824dbe7b1
:10308000ff288ad004f0c6fc04f0dcfb38bd002524
:10309000002c82d00022114b1a708db10ee0002559
:1030a0002c46f5e72d25104b1b78002b3ff466af1f
:1030b00004f0c8fb8cb10022084b1a7044f01004d5
:1030c0002946204600f084ff38bd1a25ebe71b2572
:1030d000e9e70125eee70125ece738bda80000206f
:1030e000b2000020760000207a000020820000203c
:1030f0007e000020b400002094000020b0000020da
:103100007c000020b50000208e00002086000020fa
:0c3110005a01002092000020ba000020ac
:020000040000fa
:10311c00854b1a8841f6fe739a4201d814207047e9
:10312c0070b50446002004f05ffa436813f4803f46
:10313c0000f0f18003f00c02042a01d0162070bdbf
:10314c0013f0020f00f0e9800268130c223b9bb2d3
:10315c00de2b00f2e480a2f580539bb2b3f5805fc6
:10316c0080f0df80012004f03ffa436813f4803fc5
:10317c0000f0cf8013f00c0f40f0c38013f0020f5f
:10318c0000f0c1800268130c223b9bb2de2b00f2d4
:10319c00bc80a2f580539bb2b3f5805f80f0b78002
:1031ac00032c14d8022c51d8604b1b78a34240f24c
:1031bc0094805f4e5d4d204604f016fa43683360f0
:1031cc000134e4b22b78a342f5d8002070bd012263
:1031dc00584b1a70032004f007fa03681a0c406865
:1031ec0010f4803f2ad0002a79d0534909888a42aa
:1031fc0005d00321032001f08dfb1e2070bd00299a
:10320c006fd0082a6fd810f00c0f6ed19bb24b4abe
:10321c001178022905d04a4a12889a4207d0022115
:10322c00e8e7a3f580539bb2b3f5805fe2d210f0d0
:10323c00020fb7d000223f4b1a70b3e7002a56d1c9
:10324c003d4b1b88002badd00321d3e7022004f0ab
:10325c00cbf903681a0c406810f4803f35d0002a73
:10326c0047d0384909888a4205d00321022001f051
:10327c0051fb1d2070bd00293dd0082a3dd800f01f
:10328c000c02042a01d00421f0e79bb22b4a1178de
:10329c00022914d1a3f580539bb2b3f5805fe5d21c
:1032ac0010f0400f14bf01220022274b1a7010f0af
:1032bc00020f3ff479af00221e4b1a7074e7234ab9
:1032cc0012889a42ecd00221d0e7c2b91d4b1b8860
:1032dc00002b3ff469af0321c8e7002070bd042127
:1032ec0088e7032186e7032184e7042182e7032191
:1032fc0080e70421bae70321b8e70321b6e70321ed
:10330c00b4e7162070bd162070bd162070bd1620b7
:10331c0070bd162070bd162070bd162070bd162015
:10332c0070bd162070bd00bfae000020c000002094
:10333c00b407002074000020aa0000207b000020ad
:10334c00c20000207c000020bc000020880000206f
:020000040000fa
:10335c002de9f04f87b001900d469246002304935f
:10336c0003938df80b308df80a30adf81410adf8ce
:10337c001620042205a94ff4447001f047fb4ff0ce
:10338c0000430593042205a94ff4457001f03efb60
:10339c0005f0030505eb0a0919f003091cbfc9f177
:1033ac0004095ffa89f904f0c5f902238df810308d
:1033bc0000238df8113020238df81230674c636890
:1033cc00db6898470028fad1644b5b681c680323c0
:1033dc0003aa194604a8a04704f07af95f4c636865
:1033ec00db6898470028fad15d4b9df80d201a70c8
:1033fc009df80e205a705b4b9f7c0026574c4ff06b
:10340c0001080de063689b6841460df10a0098477e
:10341c0004f05ef96368db6898470028fad101363e
:10342c00be42efd14d4cdff83cb110e063689b68b5
:10343c0039460df10a00984704f04af96368db68d5
:10344c0098470028fad10135ae42efd1454605f137
:10345c00ff385ffa88f8a5b163685b6801210df14c
:10346c000b00984704f034f96368db689847002830
:10347c00fad1b8f1000fe9d09bf8136000250127b1
:10348c00e2e7019b03f1ff38344cdff8d8b010e0d1
:10349c0063689b6851460df10a00984704f018f9cf
:1034ac006368db6898470028fad10135ae42efd14a
:1034bc00ba460af1ff37bfb2baf1000f17d018f8ad
:1034cc00013f06a800f80d3d63685b680121984731
:1034dc0004f0fef86368db6898470028fad1002fe7
:1034ec00e6d09bf8136000254ff0010adee71b4c79
:1034fc001c4e10e063689b6849460df10a00984722
:10350c0004f0e6f86368db6898470028fad10137c5
:10351c004745efd1a94609f1ff35edb2b9f1000fde
:10352c0016d006a8002300f80d3d63685b680121e6
:10353c00984704f0cdf86368db6898470028fad107
:10354c00002de7d096f8138000274ff00109dfe734
:10355c0004f0e6f807b0bde8f08f00bf1c070020b0
:08356c0000000020ac06002065
:020000040000fa
:1035740008b5694b9b7dd3b1674b5b8b13f0020f8e
:1035840016d0664bff2283f82020022283f82120e4
:10359400624b93f820305bb2b3f1ff3f00f08b80b5
:1035a4005e4b93f820305bb2062b00f09c8008bd84
:1035b400594b5b8b13f0010f07d0584bff2283f854
:1035c4002020022283f82120e2e7534b5b8b13f087
:1035d400040f07d0514bff2283f82020012283f8e7
:1035e4002120d5e74d4b93f820305bb2032b42d01a
:1035f400042b10d0022bcbd1484b1b692bb10021db
:10360400464b988803f062fac2e70121434b98883d
:1036140003f05cfabce7414a9369126993420bd008
:103624003e4a9168581c9061ca5c3b4b9a621a46a8
:10363400d369002bfcd1abe7384b5b6973b1374bd3
:103644009b885b0043f00103334a5362d369002b28
:10365400fcd10322314b83f8202099e72e4a53688a
:1036640043f440335360d369002bfcd106222b4b27
:1036740083f820208ce7294a5369013bd2699a4296
:103684000cd0254ad369002bfcd1244bd968da69c4
:10369400501cd861204b9b6a8b5479e71e4a5368af
:1036a40043f4e0235360d369002bfcd106221b4b67
:1036b40083f82020e5e70022184b83f82020164adf
:1036c400536843f440335360d369002bfcd1832205
:1036d400114b1a76114b5b6a002b3ff468af0f4a0b
:1036e400906a984708bd0d4b002283f8202083f888
:1036f40021208322084b1a761a46538b03f0300399
:10370400102bfad1054b5b6a002b3ff450af034af0
:10371400906a98474be700bf0020014180060020d3
:020000040000fa
:1037240010b5564a536803f47063d26912f0010f5e
:1037340031d0524ad06852494a69c9688a422ad269
:103744006bb94f4b5968541c5c6188544b4bdb6913
:1037540013f0020f3fd00222484b5a6125e0484b38
:103764005968541c5c6121f81200444bdb6913f066
:10377400020f30d00222414b5a61414a9369926848
:10378400934246d23e4a1168581c906131f8132086
:103794003a4b1a6115e0394ad26912f0020f1ad075
:1037a4000221364a5161002be7d1354a9369926868
:1037b400934222d2324a1168581c9061ca5c2f4b42
:1037c4001a612f4b9a699b689a422ed02c4b5a69e6
:1037d400db689a4234d02b4b1b78002b47d0274b05
:1037e400db6913f0040f04d0254b5a69db689a4255
:1037f4002cd00422214b9a6110bd214b1b69002b54
:1038040036d0ff221d4b1a611d4a1369013b136117
:10381400d7e71b4b1b69002b2ad0ff22174b1a61d9
:10382400174a1369013b1361cbe7154b1b69002b46
:10383400ccd10122134b1a70134a104b1a60cae7f9
:103844000e4b01225a6102229a61c4e70c4b0022fa
:103854001a770720094948610a490a701b6a33b17b
:10386400074a506a9847074b1b78002bc1d110bdfb
:10387400034b9a699b689a42a8d1dae70034004264
:0c38840004000020a60700200200000144
:020000040000fa
:103890002de9f04387b00e468df8072000230593ed
:1038a00004938df80f308df80e300b238df8143003
:1038b000030a8df815308df8160003f041ff464cd1
:1038c0006368db6898470028fad1434b5b681c6843
:1038d000032304aa194605a8a04703f0fffe3e4ca7
:1038e0006368db6898470028fad13c4b9df81120ab
:1038f0001a709df812205a70374b5b685b68012183
:103900000df10700984703f0e9fe334c6368db686c
:1039100098470028fad1324bdf7800252e4c4ff023
:10392000010805e06368db6898470028fad1013593
:10393000af4208d063689b6841460df10e0098477e
:1039400003f0ccfeeee7244c254f16e063689b683d
:1039500049460df10e00984703f0c0fe6368db682e
:1039600098470028fad101354545efd19df8073039
:10397000013bdbb28df8073043b39df80730012bd4
:103980000cbfff2300238df80f3063681d680123ef
:103990000df10e0219460df10f00a84703f09efe2f
:1039a0006368db6898470028fad19df80e3006f866
:1039b000013b9df80730012b05d097f804800025c6
:1039c0004ff00109d0e700238df8073003f0aefe79
:1039d00007b0bde8f08300bf1c07002000000020f6
:0439e000ac06002011
:020000040000fa
:1039e40030b583b04ff48033019302f017fd494b97
:1039f4001b78002b39d102f0bffe044610f0010ff2
:103a04004cd0454b1b78002b37d010f0100f5dd1f4
:103a1400414b1b78002b59d13e4b1b781bb3019ba8
:103a240013f4803f55d014f4007f5ad1019b13f452
:103a3400003f61d0394b1b7883b902f06dfe374be0
:103a44001b78002b5dd0019b43f00073019304228b
:103a540040f60c010deb020001f0f2fe02f08cfec8
:103a640010f4807f52d103b030bd042240f60c0123
:103a74000deb020001f018fabde7002502a840f89a
:103a8400085d04224ff4907101f00efa24f0110441
:103a9400a4b229469df80000fcf7f0fb14f0100fc7
:103aa400b6d01d4b1b788bb91d4b187810f0100f36
:103ab400b2d120f01003012baed024f01004a4b234
:103ac400002100f00f00fcf7d9fba1e7fff7fef996
:103ad400a2e7134b1878002100f00f00fcf7cefb8f
:103ae400a1e710480023036004220f4b198801f05a
:103af400a7fe01f04dfe99e7084b1b78002badd0d3
:103b04009be7019b23f000730193a0e700f088fe7c
:103b1400a9e700bf5a010020a80000207801002076
:0c3b24007b000020980000206e010020b3
:020000040000fa
:103b3000222913d8dfe801f086144e6a12121212fd
:103b40001212121212121212121212121212121255
:103b5000121212121212121212123c00122070478c
:103b600041f63243984205d041f6334398420ed095
:103b700012207047374b1b88002b65d0364b9b8932
:103b800003f00203002bd4bf122000207047334bf8
:103b90009b8913f0020f59d02e4b1b880bb11220ba
:103ba00070472f4b1b88002b0cbf12200020704742
:103bb00041f63343984201d012207047274b9b892e
:103bc00013f0020f44d0234b1b88002b0cbf122094
:103bd0000020704741f63243984205d041f6334306
:103be00098420ad0122070471b4b9b8903f00403b4
:103bf000002bd4bf122000207047184b9b8903f084
:103c00000403002bd4bf12200020704741f632433a
:103c1000984205d041f6334398420ad012207047ab
:103c20000d4b9b8903f00803002bd4bf122000200a
:103c300070470a4b9b8903f00803002bd4bf122066
:103c400000207047002070471220704712207047f4
:103c5000122070477c000020c40100208001002059
:043c6000aa00002096
:020000040000fa
:103c64002de9f04784b089469046002303930293dc
:103c74008df807308df8063003238df80c30030ad5
:103c84008df80d308df80e0003f058fd3b4c636841
:103c9400db6898470028fad1384b5b681c6803231b
:103ca40002aa194603a8a04703f016fd334c636823
:103cb400db6898470028fad1314b9df809201a7027
:103cc4009df80a205a702f4b1e7800252b4c012793
:103cd40005e06368db6898470028fad10135b542ee
:103ce40008d063689b6839460df10600984703f0d5
:103cf400f3fceee709f1ff39204cdff888a014e06b
:103d040063689b6839460df10600984703f0e4fcac
:103d14006368db6898470028fad10135ae42efd1d9
:103d240008f1ff3818f0ff0822d0b8f1010f0cbfda
:103d3400ff2300238df8073063681d6801230df10c
:103d4400060219460df10700a84703f0c5fc636895
:103d5400db6898470028fad19df8063009f8013f3e
:103d6400b8f1010f04d09af8016000250127d5e7c6
:103d740003f0dafc04b0bde8f08700bf1c070020a4
:083d840000000020ac06002045
:020000040000fa
:103d8c000022424b1a74424a03f500639a621a46a7
:103d9c00536813f0100ffbd142223e4bc3f8842022
:103dac001a46d2f8843013f0400ffad03a4b002266
:103dbc009a6377225a631a46d36b13f0040ffbd124
:103dcc000222354b83f830201a46d36b13f0020fc6
:103ddc00fbd1314a136c03f00303032bfad10122fc
:103dec002e4b5a711a46d37813f0010ffbd02c4a84
:103dfc00284b1a621a46536813f0040ffbd1284a59
:103e0c00244b5a621a46536813f0080ffbd1412217
:103e1c00204bc3f890201a46d2f8903013f0400f84
:103e2c00fad041221b4bc3f8a4201a46d2f8a43076
:103e3c0013f0400ffad04122164bc3f8dc201a467f
:103e4c00d2f8dc3013f0400ffad04122114bc3f8fa
:103e5c00e4201a46d2f8e43013f0400ffad0412295
:103e6c000c4bc3f820211a46d2f8203113f0400f26
:103e7c00fad00a4b6ff07f421a6144f2ff725a611a
:103e8c00084a9a6180221a62704700bf00140040f1
:103e9c0006013000001c00400010004000080040eb
:083eac0007010100568a010024
:020000040000fa
:103eb40030b583b002a8002340f8043d0422114623
:103ec40000f0f2ff019b294c1a0a22701b0c9b0282
:103ed40003f6ff73264a138003f014f923784bb1d9
:103ee4000024224d204603f06ff80134e4b22b780d
:103ef400a342f7d801f0befa00241e4b1c701e4bdf
:103f04001c701e4b1c701e4b1c701e4b1c701e4bd9
:103f14001c701e4b1c801e4b1c801e4b1c801e4b99
:103f24001c801e4b1c801e4b1c801e4b1c701e4b89
:103f34001c701e4b1c801e4b1c801e4b1c801e4b79
:103f44001c8001201d4b1870214600f03ff81c4bcb
:103f54001c801c4b1c701c4b1c7003f0b9f803f044
:103f640065fc204602f0f8ff03b030bdc00000201d
:103f7400ae0000207a000020a8000020b00000203d
:103f8400b5000020ba000020bc000020b8000020ca
:103f940078000020800000208a000020b600002065
:103fa40090000020b4000020820000207e00002049
:103fb400920000207c000020aa0000207b0000204a
:0c3fc40076000020c1000020bb0000209f
:020000040000fa
:103fd00070b582b004460e463d4b1b7883421cbf31
:103fe0003b4b18704ff6ff73994255d002ad45f820
:103ff000041d04224ff49a71284601f023fc344b2f
:104000001b78019304224ff49871284601f01afca2
:10401000002e4bd100222f4b1a702e490b7843f003
:1040200010020a7004f00f04013c072c13d8dfe8db
:1040300004f00f232f271212122b274b1b78012b72
:1040400042d01b2e0cbf02220d22224b1a70e4e735
:104050000021224b197021490b7843f010030b709b
:1040600043ea022302a840f8083d04224ff49c7161
:1040700001f0e8fb02b070bd0d21184b1970eae7a2
:104080000121164b1970e6e70f21144b1970e2e776
:104090000e21124b1970dee70d4b1b7802a840f879
:1040a000043d04224ff4987101f0ccfb14f0100f82
:1040b000b0d0a6f11a039bb2182bbed8084a22fa38
:1040c00003f313f0010fb8d00122024b1a70a4e7da
:1040d0007b000020c1000020820000208c00002016
:0440e00001000801d2
:020000040000fa
:1040e40030b40c46002933d0002831d03e49097f32
:1040f400002977d13c4908604a6000254d618d61f3
:104104000d6139498c60002a37d0374ad360364a6a
:10411400012111773549c968d1689268914202d961
:104124008c1a314d2c61314c646814f4706f34d1a5
:10413400002a26d001782d4a11612b498a6901325f
:104144008a61002b43dd0120284b986130bc704705
:10415400002b41d0002a41d02349097f00293fd1b7
:10416400214908604a6000254d618d610d61002878
:10417400c7d100211c4a9160c7e700211a4ad160c7
:10418400c5e7194a1269002adbd0ff21174a1161d9
:1041940015490a69013a0a61d3e75208124ca26030
:1041a40025696d0825614908e16032b101880f4a2b
:1041b4001161a2690132a261c3e7002dc1d0ff21c0
:1041c4000a4a116108490a69013a0a61b9e70222f7
:1041d400064b9a610120b9e70020b7e70020b5e754
:1041e4000020b3e70020b1e70400002000340042bf
:020000040000fa
:1041f40038b5364b1b7813b902f048fb38bd02f0d2
:1042040071fb10f4806f1dd0314b1b782bb1314bf7
:104214001b7813b10022304b1a80304b1b8d13b125
:10422400013b2e4a13852d4b1a8d2d4b1a850122e5
:104234002c4b1a7000222c4b1a802c4b1b7863b326
:1042440001f040fd254b5b88012b38d0284b1b78af
:104254002bb1234b5b88012b34d0222b32d002f0bc
:1042640041fb10f4806fc7d01c4a538d01339bb2bd
:1042740053851b4a53851f4d1f4c04222988204611
:1042840003f016fa29881d4b1b88194404390422ab
:1042940089b2204603f00cfaaee7164d164c042200
:1042a4002988204603f004fa2988144b1b881944f2
:1042b4000439042289b2204603f0faf9c2e702f075
:1042c400d3fec3e702f032f8c9e700bfbb00002009
:1042d40094000020b4000020be000020c40100208f
:1042e40080010020b000002078000020b5000020ec
:1042f400ba00002088000020980000207c000020e4
:020000040000fa
:1043040030b583b00020354b187002f05dfe0120fb
:1043140002f05afe324b1868002851d003f0d4fa48
:10432400304b186828b12e4b1b68984201d003f01b
:10433400cbfa2d4b186848b1294b1b68984205d01d
:10434400284b1b68834201d003f0befa01f01afc2b
:104354000024264b1c60224b1c60234b1c60214b09
:104364001c60234b1c7002ad45f8044d042240f63a
:104374000c01284600f098fd019b23f00073019383
:10438400042240f60c01284601f05afa194b1c701d
:10439400194b1c70194b1c70194b1c70194b1c7059
:1043a400194c204602f08eff10b103f08dfaf8e7a5
:1043b400164c204602f086ff58b103f085faf8e760
:1043c400084b18680028b2d1074b18680028b7d1e9
:1043d400bce702f07dfe03b030bd00bf5a010020ef
:1043e4007c01002060010020680100207001002091
:1043f40078010020590100206c0100207501002083
:1044040074010020ec00002024010020f0000020b2
:020000040000fa
:1044140008b50022344b1a80344b1b78002b3dd056
:10442400334b1b781bb1334a138801331380324b4f
:104434001b883bb3314a128893421dd2304b1b88f0
:10444400002b2ed02f4b1b8d2f4a12899a4219d341
:1044540003332c4a138515e00023284a13802b4a82
:1044640013850fe001f062ff294b1b88012b15d146
:104474000022204b1a8011e0214b1b880bb3013220
:104484001e4b1a8002f0f0fd194b1b7833b1204b00
:104494001b881bb1174a12889a42e3d002f0f6f93e
:1044a40008bd1c4a1288002aecd0002bead1174b15
:1044b4001b8d154a12899a4207d30333134a138575
:1044c40003e0144b1b88002bd9d002f00bfa10f434
:1044d400006fc1d1094b1b88074a12889a42d1d375
:1044e4000133064a1380cde780000020b400002089
:1044f400ba00002084000020ac000020be00002090
:104504007c000020c4010020480700208001002016
:08451400a6000020aa0000200f
:020000040000fa
:10451c002de9f04f83b0009001913d4b1d88002d8b
:10452c0068d04ff000094d469a464ff0010b07e05a
:10453c0009f101091ffa89f9baf800304b4559d92c
:10454c000aeb4903588802f0c7ff0646002840d002
:10455c0083691f88002febd00137bfb25c46d6f8b9
:10456c0018803146e0b200f0b3fec0f30e1018f81c
:10457c0010302b449db20134a4b2bc42efd1d7e72a
:10458c000af1010a1ffa8afabbf8003053451ed90a
:10459c000beb4a03588802f09fff064638b3836939
:1045ac001f88002fecd00137bfb20124d6f8189029
:1045bc003146e0b200f08cfec0f30e1019f810304a
:1045cc001d44adb20134a4b2bc42efd1d8e70020f7
:1045dc0003e04ff0000845462520eb1ddb10009a48
:1045ec001380019ba3f8008003b0bde8f08f002579
:1045fc002420f2e7ec1dc4f3cf08064b188828b131
:10460c004ff0000a5546dff80cb0c1e70546e4e769
:08461c00b8070020bc070020d4
:020000040000fa
:10462400534d206f757470757420706172616d657f
:104634007465720053796e6368726f6e697a61741f
:10464400696f6e2054797065004379636c652054fa
:10465400696d65000053796e6368726f6e697a6183
:1046640074696f6e20547970657320737570706f00
:1046740072746564004d696e696d756d204379636c
:104684006c652054696d650043616c6320616e64e0
:1046940020436f70792054696d650000476574206c
:1046a4004379636c652054696d650044656c617978
:1046b4002054696d650053796e6330204379636ccf
:1046c400652054696d6500534d2d4576656e7420e3
:1046d4004d6973736564004379636c652054696d37
:1046e4006520546f6f20536d616c6c00536869666c
:1046f400742054696d6520546f6f2053686f727411
:1047040000000000000000000000000000000000a5
:1047140000000053796e63204572726f7200ff00cf
:020000040000fa
:10472400534d20696e70757420706172616d65748b
:1047340065720053796e6368726f6e697a61746929
:104744006f6e2054797065004379636c65205469f9
:104754006d65000053796e6368726f6e697a617477
:10476400696f6e20547970657320737570706f7201
:10477400746564004d696e696d756d204379636c71
:10478400652054696d650043616c6320616e64202b
:10479400436f70792054696d650000476574204348
:1047a40079636c652054696d650044656c6179209a
:1047b40054696d650053796e6330204379636c6589
:1047c4002054696d6500534d2d4576656e74204dfa
:1047d4006973736564004379636c652054696d651e
:1047e40020546f6f20536d616c6c0053686966745c
:1047f4002054696d6520546f6f2053686f72740084
:1048040000000000000000000000000000000000a4
:10481400000053796e63204572726f7200ff0000ce
:020000040000fa
:1048240030b583b002a8002340f8043d0422334b82
:10483400198800f039fb019ca3b20193304b1b781b
:10484400012b0ad02f4b1b7813b92f4b1b78cbb1fc
:1048540001222e4b1a7003b030bd0a2003f02cf84d
:1048640005460028eed00021016004230380a980be
:104874000123c3800723038101f0d6fb284603f0fc
:1048840023f8dfe70022214b1a70214b18880634e5
:10489400a2b2824228bf0246144603f00df81d4b13
:1048a4001860c0b12246154b198800f0fdfa02a821
:1048b400002340f8083d042240f6040100f0f4fa15
:1048c400009b0093009b13f4006f08d1114b1868f0
:1048d40001f068fdbfe701220c4b1a70bbe70e48dc
:1048e40000230360054b1988094b1b8819440439bc
:1048f400042289b200f0d8fae8e700bf5c01002086
:104904005801002059010020750100206c0100208d
:0c491400760100207001002098000020b7
:020000040000fa
:1049200038b505460c4603f05df808b30246611e33
:10493000c9b201eb85005388dbb243ea00239bb286
:104940005380022d15d0032d39d0002111715171e2
:104950009171d171002111706ff05f01517023f0de
:10496000ff032a4909780b435380104601f0a2fc4b
:1049700038bd0329eed8dfe801f002020c11002156
:104980001171102151714ff0ff3191711f21d171bf
:10499000e0e71f4909889180d180dbe71c4909883d
:1049a00039b100210a201071517101209071d1712b
:1049b000d0e70021117151719171d171cae70329ba
:1049c000c8d8dfe801f002020c110021117110219a
:1049d00051714ff0ff3191711f21d171bae70d492b
:1049e00009889180d180b5e70a49098839b1002149
:1049f0000e201071517101209071d171aae7002130
:104a0000117151719171d171a4e700bf7b00002039
:084a10007c000020aa00002038
:020000040000fa
:104a18002de9f04385b00f46164600230393029311
:104a28008df8073002238df80c30030a8df80d300d
:104a38008df80e0002f080fe2f4c6368db68984703
:104a48000028fad12c4b5b681c68032302aa19467c
:104a580003a8a04702f03efe274c6368db6898472e
:104a68000028fad1254b9df809201a709df80a20d4
:104a78005a70234b93f8128000251f4c4ff0010900
:104a88000de063689b6849460df10700984702f0fe
:104a980021fe6368db6898470028fad1013545454f
:104aa800efd1154b5b685b6831463846984702f092
:104ab80011fe114c6368db6898470028fad1012e73
:104ac80015d00f4bde7c00250b4c01270de06368e9
:104ad8009b6839460df10700984702f0fbfd6368b3
:104ae800db6898470028fad10135b542efd102f0ca
:104af80019fe05b0bde8f0831c0700200000002067
:044b0800ac060020d7
:020000040000fa
:104b0c0038b5059c602954d000293bd0258905f483
:104b1c007f45258100284ed1e088c0f30b0040f47e
:104b2c004050e080402925d104990139032910d83f
:104b3c000a232370002363709df81030c3f1040323
:104b4c0042f0030242ea830245f0400515432581f9
:104b5c0043e00499994298bf049b0a332380bdf823
:104b6c001030a381049b1b0ce38142f041021543de
:104b7c00258132e00a2323700023637045f0600521
:104b8c0025812ae0b8b9e388c3f30b0343f44053ff
:104b9c00e3800a23237000236370238943f02003ee
:104bac0023811ae0e388c3f30b0343f44053e380ff
:104bbc0013e00028f6d00a23237000236370e388e7
:104bcc00c3f30b0343f40053e380238943f08003c6
:104bdc002381064b53f82030e3600221204601f07c
:104bec001ffa10b1024b1c6038bd38bd9864000030
:044bfc007000002025
:020000040000fa
:104c000010b582b02a4a20241480002353805360b8
:104c100044f21f009081274911615361938313620d
:104c20001385538582f84030234a148053805360a3
:104c3000908111615361938313621385538582f8c8
:104c400040301e4a137002f0d3fa20bb00231c4ae6
:104c500013701c4a13701c4a13801c4a13701c4aa0
:104c600013601c4a13601c4a13601c4a136002a89c
:104c700040f8043d0422082100f018f9019b13f0cc
:104c8000080f0bd00022164b1a704ff47a62154ba6
:104c90001a6002b010bd02f0d5fbd7e70122104b1d
:104ca0001a7004224ff411610f4800f0fff8ece78e
:104cb000c4010020a086010080010020080200201d
:104cc0002c0200202d0200205e0200206002002045
:104cd0003c02002018020020280200204002002090
:0c4ce000a4000020340000203000002060
:020000040000fa
:104cec002de9f04184b01e465469e9b10f46938911
:104cfc00c3f30323072b17d0092b24d0002e5ad033
:104d0c002e4b6c460fcb07c4237039460df10900ae
:104d1c0002f0e4f86b4607cb30607160b2601b7830
:104d2c0033734ff00c080ae0204602f0d1fd1ffa55
:104d3c0080f826b142462146304602f0aafc404695
:104d4c0004b0bde8f0811ffa81f8204602f0c0fde6
:104d5c0001302518b8f1000fd0d0235c0233dbb240
:104d6c00012bcbd9b8f1010f10d001240134a4b21e
:104d7c00284602f0adfd01300544a045bed32b788a
:104d8c000233dbb2012bb9d9a045efd1284602f092
:104d9c009ffd1ffa80f846b1b8f1000fb0d0424623
:104dac002946304602f075fcc9e7b8f1000f08bf80
:104dbc004ff00c08c3e74ff00c08c0e72c0700209d
:020000040000fa
:104dcc002d4b1b78002b56d02de9f04782b017469f
:104ddc000d468146294b1e683389dbb203f0e00a8d
:104dec0003f01004baf1400f0fd04ff0000800226e
:104dfc00214b1a700196009543462246514648466f
:104e0c00fff77efe02b0bde8f0871d4bb3f80080c3
:104e1c00a8f110081ffa88f888450bd34b1e032bfa
:104e2c0020d806f10c008242e1d00a46394602f045
:104e3c0030fcdce70123134a1370134a1370134b35
:104e4c001c70134b19606022124b1a70124b1f60ae
:104e5c004246394606f1100002f01bfc0f4bc3f81a
:104e6c000080c4e706f110008242c0d00a463946e1
:104e7c0002f00ffcbbe770473a0700203802002015
:104e8c0064010020210200202e02002020020020bc
:104e9c00240200202f020020400200201c020020cf
:020000040000fa
:104eac00002a6ad02de9f04383b00d46174606461a
:104ebc004ff0c0094ff004084ce0032c04d8012c2f
:104ecc008cbf022401241be08df804502b0a8df8b2
:104edc0005308df806408df8079002f059fd4246da
:104eec0001a94ff44170fff791fd424601a94ff41f
:104efc004070fef7c7fc02f04ffd2cb319e0012403
:104f0c008df804502b0a8df805308df806408df87d
:104f1c00079002f03dfd424601a94ff44170fff7a6
:104f2c0075fd424601a94ff44070fef7abfc02f050
:104f3c0033fd01a9324611f8013b02f8013b931bea
:104f4c00dbb2a342f7d31646a4b22544adb23c1b48
:104f5c00a7b27fb115f0010fd1d13c46042f28bf69
:104f6c000424e4b215f0020fa7d0012c8cbf02244c
:0c4f7c000124c5e703b0bde8f0837047d6
:020000040000fa
:104f880008b5214b1b88002b35d1204b1b88002be3
:104f980035d14ff2f33001f0ddff00231c4a1370c6
:104fa8001c4a13701c4a13701c4a13701c4a137055
:104fb8001c4a13801c4a13801c4a13801c4a138005
:104fc8001c4a13801c4a13801c4a13801c4a1380f5
:104fd8001c4a1385538582f840301b4a1385538534
:104fe80082f84030194a1380194a1370194a13700d
:104ff800194a137008bd022001f0e4ffc5e7032039
:1050080001f0e0ffc5e700bf7c000020aa000020f7
:10501800b0000020bb000020b40000209400002055
:10502800b1000020ac000020be0000208a00002053
:1050380080000020b600002090000020a60000207c
:1050480084000020c4010020800100208e00002080
:0c505800bc000020ba000020080200206c
:020000040000fa
:10506400f0b583b002ac002344f8083d04262f4d6c
:10507400324621466420fef7f3fd009bab42f7d194
:1050840002a9002341f8083d04225c20fff7c2fc7a
:10509400932704264ff4017502ac44f8047d32468c
:1050a4002946204600f0ccfb0023019332462946d2
:1050b4002046fff7f9fe019b932bedd102a80023b4
:1050c40040f8043d04224ff4a871fff7edfe019b64
:1050d40013f0040f02d00122154b1a70002502a808
:1050e40040f8045d04224ff4017100f0a9fb02ac06
:1050f40040f2011344f8083d042221465420fff7ee
:1051040089fc01230093042221465c20fff782fce2
:10511400042221465820fef7a3fd02f041f902f0d3
:105124004ff902f0f7fa284603b0f0bd2143658732
:04513400d30600207e
:020000040000fa
:1051380008b52a4b1b78002b4fd0294b1b78002b26
:1051480037d0284b1b78002b37d1274b1b78002be7
:1051580033d102f01ffc01f085ff244b1b7813bbf1
:1051680002f01cfc29e001f005fb10f4806f0cd064
:1051780001221c4b1a7000221d4b1a801d4b1b78f4
:10518800002be6d000f09cfde3e71b4b1b88002baf
:10519800dfd110f4006fdcd00122124b1a7000220c
:1051a800134b1a80d5e701f0bff8d9e701f01afad6
:1051b80008e00d4b1b78002bd5d0104b1b68b3f5be
:1051c8007a6ff3d2fef70afc00f08efb01f00efeb8
:1051d8000b4b1b680bb1984708bd08bda7070020fb
:1051e800bb000020b0000020b4000020ba0000205e
:1051f80078000020b50000207c000020340000204a
:04520800580000202a
:020000040000fa
:10520c00274b1b78002b4ad0264b1b78002b46d003
:10521c00254b1b8813b3254a128893421bd80022b6
:10522c00234b1a70234b1b78002b38d00022214bb8
:10523c001a70704700221e4b1a70f3e701221d4ba7
:10524c001a701d4bb3f90030002b28dd1b4a138854
:10525c000133138070470132144b1a800122144b16
:10526c001a70174b1b8833b1164a12889342e1d936
:10527c000132144b1a80144b1a8d144b1b899a4211
:10528c00dcd30c4b1b7853b100220a4b1a700a4b1f
:10529c00b3f90030934202dd084b1a807047704717
:1052ac00b4000020ba0000208a00002080000020fa
:1052bc0094000020b10000208e0000208600002009
:1052cc0090000020b6000020c401002048070020f8
:020000040000fa
:1052dc00f0b5b1f80ce0cef3032e00280cbf00257e
:1052ec001025bef1070f58d087b2002f56d00626d6
:1052fc00012223e0062b0ed009d8032b0bd0042b54
:10530c0036d0974215d960880544adb211e0082b10
:10531c002ed90b2bf5d105f10f004ff6f07505408a
:10532c00974206d90b2b34d0b3f5187f31d01035fa
:10533c00adb2013292b20636ba422fd8bef1080f86
:10534c000c690cbf0634a41923881f2be3d0d1d9c8
:10535c002f2b0dd004d8202b0ad02e2bd1d1dae74d
:10536c00b3f5187fd7d0ccd3a3f262200128c8d8cc
:10537c0005f11f004ff6e07505409742d9d9a3f20d
:10538c0062239bb2012b9abf60882d182035adb2d9
:10539c00cfe760880544adb2c9e700252846f0bdcb
:020000040000fa
:1053ac00002a62d02de9f04383b00d46174606461d
:1053bc004ff0c0094ff0040844e0032c04d8012c32
:1053cc008cbf0224012417e08df804502b0a8df8b1
:1053dc0005308df806408df80790424601a94ff430
:1053ec004170fff713fb424601a94ff44070fef7e2
:1053fc0049fa0cb315e001248df804502b0a8df8f2
:10540c0005308df806408df80790424601a94ff4ff
:10541c004170fff7fbfa424601a94ff44070fef7ca
:10542c0031fa01a9324611f8013b02f8013b931bfa
:10543c00dbb2a342f7d31646a4b22544adb23c1b53
:10544c00a7b27fb115f0010fd5d13c46042f28bf70
:10545c000424e4b215f0020fafd0012c8cbf02244f
:0c546c000124c9e703b0bde8f0837047dd
:020000040000fa
:1054780030b583b02222204b1a804ff480721f4b24
:105488001a804ff480531e4a13801e4a13801e4b05
:1054980000241c805c800a229a801c4b1c805c8043
:1054a8009a801b4b1c601b4b1c601b4b1c601b4bce
:1054b8001c601b4b1c7002ad45f8044d042240f6dd
:1054c8000c012846fff7eefc019b23f000730193c3
:1054d800042240f60c01284600f0b0f9114b1c706c
:1054e800114b1c70114b1c70114b1c70114b1c7014
:1054f800114b1c7003b030bd760100206401002000
:105508005c0100206e01002024010020f000002032
:10551800700100207c01002068010020600100204b
:10552800780100205a010020590100206c01002058
:0c5538007501002074010020ec00002030
:020000040000fa
:10554400f0b583b0294b1b7803f00f03012b49d02e
:10555400274b1b780bb9f02445e0264b1c780cb183
:10556400072440e005460788ba1d92b2224b1988e9
:1055740000f066f902a8002340f8043d042240f636
:105584000c01fff791fc019b0193019b13f4006f45
:1055940012d11a4b1e88b31fdb1b9bb20021184a81
:1055a4001160032b14d9144b198831440439042293
:1055b40089b2134800f044f9124b1b6813b100225e
:1055c400114b1a600f4b1d6001220a4b1a700ae03e
:1055d400c3f10402b91d21f003012944084802f073
:1055e4005cf8e0e7f024204603b0f0bd7b00002027
:1055f4005a010020590100206e010020640100209e
:0c560400980000206801002070010020c8
:020000040000fa
:10561000050008000700060010000f00070020002a
:10562000070000002000000006001000070007002f
:1056300020000700070020000700000020000000f5
:10564000060010003f0007002000070007002000b0
:105650003f000600100007000600100007000000d1
:1056600010000000000010000000000020000000fa
:1056700000002000000000002000000000002000ca
:10568000000000000000000000000000000000001a
:10569000000000000000000000000000000000000a
:1056a00000000000000000000000000000000000fa
:1056b00000000000000000000000000000000000ea
:1056c00000000000000000000000000000000000da
:0856d00001000100070000bf0a
:020000040000fa
:1056d80070b5cd1c25f0030508350c2d38bf0c25f9
:1056e800002d064601dba94203d90c2333600020b4
:1056f80070bd02f092f9234a1468214691b9224cf0
:1057080023681bb9304601f019ff2060294630464e
:1057180001f014ff431c26d10c233360304602f0fd
:105728007df9e4e70b685b1b1ad40b2b0fd90b60d0
:10573800cd50cc18304602f071f904f10b00231d4e
:1057480020f00700c31a1bd05a42e25070bd8c42a9
:105758000dbf63684b686360136018bf0c46e9e7c8
:105768000c464968cae7c41c24f00304a04205d0cb
:10577800211a304601f0e2fe0130cdd02560d9e78c
:0c57880070bd00bfc0070020c407002057
:020000040000fa
:1057940008b50022234b1a70234b186810b1234b11
:1057a4001b68abb1224b1a681f4b1a601f4b186859
:1057b40088b1fff7c5fe00221c4b1a601d4b1b78f5
:1057c4002bb113f0010f0ed113f0020f19d108bd44
:1057d40002f07af8e6e7184801f074fd0028edd0ed
:1057e400fff7aefeeae7154b186802f07df802f009
:1057f40031f80028ebd00f4a137823f0010313701b
:1058040008bd23f002030b4a13700c4b186801f017
:105814000dfa0028dbd0074a137843f00203137013
:10582400d5e700bf590100207c0100206001002061
:105834006801002075010020f000002070010020a4
:020000040000fa
:10584400002a52d02de9f04383b00d461746064690
:105854004ff001094ff0040834e0032c04d8012c64
:105864008cbf0224012402e064b100e04c4601a98b
:10587400324612f8013b01f8013b931bdbb2a34211
:10588400f7d3164602f088f8424601a94ff4407057
:10589400fff7c0f88df804502b0a8df805308df809
:1058a400064080238df80730424601a94ff4417029
:1058b400fff7b0f802f074f8a4b22544adb23c1b73
:1058c400a7b27fb115f0010fd0d13c46042f28bff9
:1058d4000424e4b215f0020fbfd0012c8cbf0224c3
:0c58e4000124c4e703b0bde8f083704766
:020000040000fa
:1058f00030b583b0204b1c68002c33d01f4b1b6885
:105900001f4a12681f4909781f4800881f4d2d78cb
:105910000095a0470446ff2824d01d4b1b78013b6f
:10592000032b10d8dfe803f00a022020194b186877
:1059300020b101f0cbff0022164b1a600022114665
:105940002046fff743fa0023114a13700e4a1380d2
:105950000c4a13700a4a1360084a13600b4a13700a
:10596000054a136003b030bd044b1a68044b196834
:10597000fff72cfae7e700bf2802002018020020fa
