:020000040000fa
:10000000f8ff02206d6c0000f77c00002f840000d8
:100010005b8f00001b930000b34e00000000000047
:10002000000000000000000000000000cf78000089
:100030008787000000000000cf7800003d8a0000a4
:10004000cf780000cf780000cf780000cf78000094
:10005000cf780000cf780000cf780000cf78000084
:10006000cf780000cf780000cf780000cf78000074
:10007000058c0000258c0000cf780000cf780000b0
:10008000cf780000cf780000cf780000458c0000ca
:10009000cf780000cf780000cf780000cf78000044
:1000a000cf780000cf780000cf780000cf78000034
:1000b000cf780000cf780000cf780000cf78000024
:1000c000cf780000cf780000cf780000cf78000014
:1000d000cf780000cf780000cf780000cf78000004
:1000e000cf780000cf780000000000000000000082
:1000f00000000000cf780000cf780000cf7800002b
:10010000cf780000cf780000cf780000cf780000d3
:10011000cf780000cf780000bd3a0000bd3a000063
:10012000bd3a0000bd3a0000cf780000cf78000053
:10013000cf780000cf780000cf780000cf780000a3
:10014000cf780000cf780000cf780000cf78000093
:10015000cf780000cf780000000000000000000011
:10016000000000000000000000000000000000008f
:10017000000000000000000000000000000000007f
:10018000cf780000cf780000cf780000cf78000053
:1001900000000000618a0000cf780000cf780000e6
:1001a000cf780000cf780000cf780000cf78000033
:1001b000cf780000cf780000cf780000cf78000023
:1001c000cf780000cf780000cf780000cf78000013
:1001d000cf780000cf780000cf780000cf78000003
:1001e000cf780000cf780000cf780000e1870000d2
:1001f000cf780000cf780000cf780000cf780000e3
:10020000cf7800000000000000000000cf78000060
:10021000cf780000cf780000cf780000cf780000c2
:10022000cf780000cf780000cf780000cf780000b2
:10023000cf780000cf780000cf780000cf780000a2
:10024000cf780000cf780000cf780000cf78000092
:10025000cf780000cf7800006d3c0000cf78000020
:020000040000fa
:10026000f8b500bff8bc08bc9e467047d97f0000b7
:10027000f8b500bff8bc08bc9e467047b57f0000cb
:020000040000fa
:100280002de9f0414ff6ff72ad4b1a800122ad4bc4
:100290001a7010f0100736d0ab4a137823f0100311
:1002a000137001270e4600f00f05a74b1c7805ebd5
:1002b000041404f0ff04442c0fd000f2a482222c7a
:1002c00000f09b8240f29881242c40f093829f4959
:1002d0009f4804f0e9fc804648b99e4b187803f02b
:1002e000c1f91ffa80f8b8f1000f00f0f982964bbf
:1002f0001b78042b00f0f480082b00f0ed80022b1b
:1003000040f0f880f0e0904b1b7813f0100f05d010
:1003100000f00f02012a01d0bde8f08103f00f03c5
:10032000894a1370bee700228b4b1a704ff01308f6
:10033000e3e008f099f9894b1b78002b00f0ca83a1
:1003400006f028fa804648b1b8f1ff0f00f0c583e7
:100350007c4b1b7873b104f013fbcee00022794b89
:100360001a7009f08df880460028edd101227c4bef
:100370001a70c2e009f086f8ede701f0d7fb80467d
:1003800048b1b8f1ff0f00f04c826e4b1b789bb167
:1003900005f0b8fab1e000226a4b1a70714809f012
:1003a00073f880460028ecd16e4b188807f0ecfffc
:1003b00001226d4b1a70a0e009f068f8e8e707f039
:1003c000fffb804648b1b8f1ff0f00f031825d4b72
:1003d0001b7873b108f0fafe8fe00022594b1a70b7
:1003e00009f056f880460028edd101225f4b1a70c3
:1003f00083e009f04ff8ede709f04cf808f0e6fe6d
:100400004ff000084f4b83f8008076e009f042f887
:10041000804608f0dbfe00224a4b1a70b8f1000f4c
:1004200040f0148209f032f805f06cfa4ff0000841
:10043000444b83f8008060e009f02cf8804608f017
:10044000c5fe00223f4b1a70b8f1000f40f0008249
:1004500009f01cf8804605f055fa0022394b1a7055
:10046000b8f1000f40f0f68104f08afa09f00af8ba
:1004700080460022384b1a702123b8f1ff0f3cd17f
:1004800001213b4a11703b4a1380c8222c4b1a8031
:1004900082e00022304b1a7077b92b4b1b7813f097
:1004a0000c0f00f0cd81294b1b884bb9284b1b88c2
:1004b00063b94ff0fe0820e0204609f000f8ece7b1
:1004c000022008f01df84ff0fe0816e0032008f0a7
:1004d00017f84ff0fe0810e008f0dcff08f076fe99
:1004e00008f0d4ff05f00efab8f1160f16d002226c
:1004f000154b1a70b8f1ff0f3ed0134b187800f06f
:100500000f03ab4271d0b8f1000f40f0c181002e53
:1005100040f0a2810c4b1d70b046c7e104f030fae8
:1005200008f0b0ff002007f067ff012007f064ff2c
:100530000122054b1a70e0e74ff01308dae700bf1d
:1005400012010020da000020db000020dc00002087
:100550000a01002020010020680200200a09002072
:10056000ba010020f20000201a010020150100202d
:1005700008010020d60000200122d14b1a70d14b77
:100580001c80242c18d014d8123c94423ff67daf26
:100590004ff4fa62cc4b1a80cb48b0f90030cb490b
:1005a00081fb0321da17c2eba1029b1a0380bde88d
:1005b000f081482c7ff469af42f22832c24b1a8096
:1005c000eae74ff0130898e708f064ff08f0fefd33
:1005d0004be1022007f010ff51e1032007f00cff70
:1005e0004de10422ba4b1a705be10021b44b197043
:1005f00004f02cf8bde8f081122c00f0fe800022ff
:10060000b04b1a80a4f11103772b00f2168101a2de
:1006100052f823f093040000330300003905000072
:10062000350800003b0800003b0800003b080000c4
:10063000350800003b0800003b0800003b080000b4
:100640003b0800003b0800003b0800003b0800009e
:100650003b08000069040000990400003508000010
:100660007b0300003b0800003b0800003b08000043
:10067000350800003b0800003b0800003b08000074
:100680003b0800003b0800003b0800003b0800005e
:100690003b08000027030000350800003b0800006d
:1006a000350800003b0800003b0800003b08000044
:1006b000350800003b0800003b0800003b08000034
:1006c0003b0800003b0800003b0800003b0800001e
:1006d0003b0800005104000025040000350800001c
:1006e000990400003b0800003b0800003b080000a4
:1006f000bf0300003b0800003b0800003b0800006f
:100700003b0800003b0800003b0800003b080000dd
:100710003b0800003b0800003b0800003b080000cd
:100720003b0800003b0800003b0800003b080000bd
:100730003b0800003b0800003b0800003b080000ad
:100740003b0800003b0800003b0800003b0800009d
:100750003b0800003b0800003b0800003b0800008d
:100760003b0800003b0800003b0800003b0800007d
:100770003b0800003b0800003b0800003b0800006d
:100780003b0800003b0800003b0800003b0800005d
:100790003b0800003b0800003b0800003b0800004d
:1007a0003b0800003b0800003b0800003b0800003d
:1007b0003b0800003b0800003b0800003b0800002d
:1007c0003b0800003b0800003b0800003b0800001d
:1007d0003b080000390400000d040000350800004b
:1007e000f90300003b0800003b0800003b08000044
:1007f00099040000422c7ff402af022002f032ff85
:100800001ffa80f86fe5822cf7d006d9842c3ff4cc
:1008100064ad882c3ff461adf1e6482c3ff45dad4a
:10082000ede624220121264b1970264b1a80c3e6df
:100830004822f7e74ff011085fe64ff012085ce638
:100840004ff0fe0859e64ff0120856e6822314e6f0
:10085000812312e6412310e6284310f0080f14d03c
:100860001c4b1b78002b7ff4afae1b4b1b88002b5f
:100870007ff4afae194b1b88002b7ff4aeaeb8f1fe
:10088000000f09d1002e3ff445ae45f0100541e6ba
:10089000284310f0080fe3d10d4b1b78082b3ff4d1
:1008a000a0ae0b4a137843f0100313700022044be0
:1008b0001a704146064b187803f0c8febde8f08177
:1008c00008010020d600002012010020676666663d
:1008d000db00002015010020dc0000200a010020c0
:1008e0000022814b1a80a4f11103772babd801a20f
:1008f00052f823f09304000033030000c305000006
:1009000035080000470800004708000047080000bd
:1009100035080000470800004708000047080000ad
:10092000470800004708000047080000470800008b
:100930004708000069040000990400003508000021
:100940007b0300004708000047080000470800003c
:10095000350800004708000047080000470800006d
:10096000470800004708000047080000470800004b
:100970004708000027030000350800004708000072
:10098000350800004708000047080000470800003d
:10099000350800004708000047080000470800002d
:1009a000470800004708000047080000470800000b
:1009b000470800005104000025040000350800002d
:1009c000990400004708000047080000470800009d
:1009d000bf03000047080000470800004708000068
:1009e00047080000470800004708000047080000cb
:1009f00047080000470800004708000047080000bb
:100a000047080000470800004708000047080000aa
:100a1000470800004708000047080000470800009a
:100a2000470800004708000047080000470800008a
:100a3000470800004708000047080000470800007a
:100a4000470800004708000047080000470800006a
:100a5000470800004708000047080000470800005a
:100a6000470800004708000047080000470800004a
:100a7000470800004708000047080000470800003a
:100a8000470800004708000047080000470800002a
:100a9000470800004708000047080000470800001a
:100aa000470800004708000047080000470800000a
:100ab00047080000390400000d040000350800005c
:100ac000f90300004708000047080000470800003d
:100ad000990400004ff051080fe50122034b1a70f2
:100ae0001222014b1a8053e5d60000200801002095
:020000040000fa
:100af000a40800201c0000000000000000000020ee
:100b00006400000000000000a308002001000000b5
:100b10000000000076090020010000000000000035
:100b2000640000200200000000000000ec0800202b
:100b300010000000000000007c08002027000000da
:100b400001000000000000010000010000020000a0
:100b50000100000400000000000000000000000090
:100b6000000000000003000001000000300700202a
:100b7000c000000000000000770900200100000014
:100b800000000000680000202800000000000000b5
:100b9000500800202c000000000000000c0900207c
:100ba0000c000000000000005409002008000000b4
:100bb000000000005c0900200800000000000000a8
:100bc000640900200400000000000000d608002096
:100bd000020000000000000068090020080000007a
:100be00000000000180600201801000001000000ad
:100bf00000000000000000000116210002090000b2
:100c000068910000b0810000480900200000000049
:100c100000000000000000000000000000000000d4
:100c2000001a2100020900007c91000018830000d6
:100c3000300900200000000000000000000000005b
:100c40000000000000000000121c06000108000067
:100c5000a0930000988e000088090020000000008a
:100c60000000000000000000000000000000000084
:100c7000131c060001080000ac930000b48e0000b5
:100c80008c090020000000000000000000000000af
:100c9000000000000000000000602a0002090000bf
:100ca00090910000a48c00002409002000000000a6
:100cb0000000000000000000000000000000000034
:100cc00010702a0002090000a4910000d08e0000dc
:100cd0003c090020000000000000000000000000af
:100ce0000000000000000000ffff00000000000006
:100cf00000000000000000000000000000000000f4
:100d00000000000000000000cc020020e001000014
:100d100001000000000000000000000000100700bb
:100d200000070000289400007c9300008009002048
:100d300000000000000000000000000000000000b3
:100d400000000000011005000007000030940000c2
:100d50009c920000d6080020000000000000000067
:100d60000000000000000000000000000810090062
:100d7000000700003894000088930000c00800209d
:100d80000000000000000000000000000000000063
:100d90000000000009100900000700004094000056
:100da000049100007809002000000000000000000d
:100db0000000000000000000000000000a10090010
:100dc0000007000048940000189100007c090020f2
:100dd0000000000000000000000000000000000013
:100de000000000001810230004090000c48c00005b
:100df00074810000d80800200000000000000000fe
:100e0000000000000000000000000000f1102a00b7
:100e10000209000054910000b4800000180900206d
:100e200000000000000000000000000000000000c2
:100e300000000000f8101b000007000050940000a4
:100e40002c910000680900202d7f000000000000a8
:100e5000000000000000000000000000001c050071
:100e600004080000949300004091000070090020e5
:100e70000000000000000000000000000000000072
:100e800000000000321c290020090000046200005c
:100e9000b44e00002402002000000000000000000a
:100ea000000000000000000000000000331c2900ca
:100eb0002009000004620000b44f0000e00100209f
:100ec0000000000000000000000000000000000022
:100ed00000000000ffff0000000000000000000014
:100ee0000000000000000000000000000000000002
:100ef00000000000c00800201600000001000000f3
:100f000053414d4435312045746865724341542046
:100f1000536c617665000000780900200400000031
:100f200001000000312e30007c0900200400000088
:100f300001000000312e3000d8080020140000000d
:100f40000100000004000000d804000053920000db
:100f500001000000010000007009002006000000f0
:100f600001000000040002010403000080090020c9
:100f70000400000001000000891300009000002020
:100f80000800000000000000090900200100000026
:100f90000000000098000020350000000000000064
:100fa000d000002004000000000000000a0900201a
:100fb000010000000000000084090020040000007f
:100fc00000000000d40000205000000000000000dd
:100fd0002401002028000000000000004c01002037
:100fe0009400000000000000fc0800200d0000003c
:100ff00001000000537562496e646578203030301e
:1010000000000000180900200c0000000100000092
:10101000020000000100000004000000e0010020c8
:101020008e00000000000000240900200c000000d9
:1010300001000000020000000000000000000000ad
:10104000300900200c000000010000000200000038
:1010500020010060200200603c0900200c0000001c
:10106000010000000200000000000000000000007d
:10107000480900200c0000000100000002000000f0
:101080002001107020021070880900200400000068
:1010900001000000010001168c090020040000007e
:1010a000010000000100001a70020020040000008e
:1010b000000000000b0900200100000000000000fb
:1010c000740200204d00000000000000c402002057
:1010d0000100000000000000900900200400000052
:1010e000000000009409002004000000000000003f
:1010f000980900200400000001000000f007002013
:10110000f007002060000000010000000000000067
:10111000c48d0000e48d0000a48d000000000000dc
:1011200000000000000000000000000000000000bf
:1011300000000000000000000000000000000000af
:10114000000000000000000000000000000000009f
:10115000000000000000000000000000000000008f
:10116000000000000000000000000000c802002095
:101170000400000000000000ac0400206c0100002e
:10118000010000004300000000000000000000001b
:10119000000000000000000000000000000000004f
:1011a00000000000430000000000000000000000fc
:1011b000000000000000000000000000000000002f
:1011c00000000000430000000000000000000000dc
:1011d000000000000000000000000000000000000f
:1011e00000000000430000000000000000000000bc
:1011f00000000000000000000000000000000000ef
:10120000000000004300000000000000000000009b
:1012100000000000000000000000000000000000ce
:10122000000000004300000000000000000000007b
:1012300000000000000000000000000000000000ae
:10124000000000004300000000000000000000005b
:10125000000000000000000000000000000000008e
:1012600000000000418f0000398b000000000000ea
:10127000b04d0000e5930000e4930000e49300000b
:10128000e4930000e4930000e4930000e493000082
:10129000e4930000e4930000e4930000ffffffffed
:1012a000ffffffffffffffffffff000001004153b3
:1012b0004349490000000000000000000000000059
:1012c000000000000000000000000000000041538a
:1012d0004349490000000000000000000000000039
:1012e00000000000000000000000000000000000fe
:1012f0009c09002004000000000000000000000025
:101300000000000022222222222222222222222245
:020000040000fa
:101310002de9f04f89b0a54b1c7824b10924204653
:1013200009b0bde8f08f0546b0f808805ffa88f78d
:1013300007f0e006202e27d01ad9402e24d0602ea8
:1013400018d19b4b1b78b34200f0d1814ff00009bc
:10135000cdf808904ff0030a0195029b00931ffa05
:1013600089f307f010023146504604f017f8d6e72b
:10137000002ee6d04ff00009cdf808904ff0030a98
:10138000baf1ff0fcbd0e7e7b5f800a0b5f80ab087
:101390004fea182303eb0b239bb203934fea1b2b5b
:1013a000184607f0bffc0490002800f0a283037bde
:1013b0009b4506d94ff00009cdf808904ff0110a6f
:1013c000cae707f01003059302465946039805f053
:1013d00003fc0290402e0fd0202e2bd00694ddf877
:1013e000089000230793059b002b56d0bbf1010ffb
:1013f00051d94ff0050aafe7baf10a0f01d008241e
:101400008de7431e032b08d805f10c030793002337
:10141000ab81eb8106948146e5e7664b1b88a3f11f
:101420001009029b4b4500f2448305f1100307931a
:101430000694d8e717f0020f0dd0baf10a0f01d0c9
:1014400008246ce7c7f38103c3f1040905f10c0319
:1014500007930694c7e7ea89ab8903eb0249564b29
:101460001b8809f110029a4204d9063b9a4507d01d
:10147000082454e709f10a039a4501d008244ee7ed
:1014800005f110030793aaf10a03994594bf0023bd
:1014900001230693a7e701230593069b002b42d166
:1014a000029b4bb9454bbdf80c201a80444b83f886
:1014b00000b0444b049a1a60402e00f0e380059b74
:1014c0000193079b0093049b4a465946039800f0fa
:1014d0005ffe8246ff287ff43faf01233a4a137034
:1014e0003a4a9df814101170394a82f800b0394a0e
:1014f000bdf80c101180384ac2f80090374a07999d
:101500001160049a116a364a1160284a1370354beb
:101510001d602b8923f0ff0308f0f00843ea08035d
:101520002b81069cfbe601232f4a13702f4a137070
:101530002f4b9df814201a70204bbdf80c201a80f8
:101540001f4b83f800b01f4b049a1a60402e294ba2
:1015500006bf029a1a60c3f80090274b186808b1ba
:1015600007f0b4fe234b1868013020f0010007f0ab
:10157000a5fe214b186080b1402e41d0aaf10a0986
:101580004a4605f1100107f030fd0022084b1a70a1
:10159000a2461a4bc3f80090f2e6059b002b14bf3d
:1015a0004ff0050a4ff0040ad6e600bf0b090020f1
:1015b0008f020020c4010020d6010020a4020020d8
:1015c000bc020020b80200208c0200208d02002006
:1015d000c0020020be0200209c02002078020020f1
:1015e0008802002098020020810200208e02002044
:1015f0008002002084020020a00200207c02002043
:10160000059b01930090049b029a5946039801f0b0
:1016100047f8824658b3ff28bbd10422b84b1a7052
:10162000b84b9df814201a70b74b83f800b0b74b35
:10163000bdf80c201a80b64b029a1a60b54b1a6896
:10164000b54b1a60049bda69b44b1a600122b44ba3
:101650001a70b44b1d602b8923f0ff0308f0f008cb
:1016600043ea08032b816022af4b1a7057e64a46c3
:10167000a84b196805f1100007f0b7fc6022aa4bcf
:101680001a7086e7059b0193079b0093049b029abf
:101690005946039801f004f88246ff287ff45caeb7
:1016a0000322974b1a70974b9df814201a70964b93
:1016b00083f800b0954bbdf80c201a80944b029a29
:1016c0001a60954b079a1a60049bda69934b1a606b
:1016d0000122934b1a70934b1d602b8923f0ff035b
:1016e00008f0f00843ea08032b81069c17e6002e59
:1016f00040f03d818d4b1a7808f010039a4200f0bb
:10170000f2818b4b1b88093b9bb207f01002874983
:101710000a70804a1068002800f0e881854a116844
:10172000854a1268521a18f0010f1ad09a4200f234
:10173000c5812b88033b9a4200f2c0816fea680e94
:101740000ef0070e724505d0072a40f2b7819a4283
:1017500040f0b4814ff0000e784b83f800e09146e2
:1017600009e04ff0010cdff8d4e18ef800c0994693
:101770009a4240f2a38111f0010f4ed149086a89c3
:101780004fea182343ea022320f8113009f101003f
:10179000400801281ad901218846dff898c1dff8ee
:1017a00074e105eb4102dcf8003008eb5308b2f8b5
:1017b00008a053891b0243ea1a23def8002022f80e
:1017c0001830013189b288468142ead35b4b93f8e5
:1017d0000080b8f1000f41d00a232b7000236b70fa
:1017e000eb88c3f30b0343f44053eb804f4b1b7860
:1017f000002b00f0ad8030232b7200236b724f4b17
:101800001b78012b00f0a98000234a4a1360464a46
:101810001370b246994602939ee5490810f81130bc
:1018200020f811303b49434802685208d1f800e0e3
:101830002b8923f0ff033ef812c043ea0c032ef875
:101840001230036823f001030233086809f1ff3204
:1018500005f10a01184407f0c8fbb7e7384bd3f885
:1018600000c0354a12683749097837480088dff8e0
:10187000dce09ef800e0cdf804e0dff898e0def868
:1018800000300093634600f083fc8246ff2829d194
:1018900002221b4b1a702d4b1a781a4b1a70294bc7
:1018a0001a78194b1a70284b1a88184b1a80224b39
:1018b0001a68174b1a60174b1a68174b1a60204b9f
:1018c0001b681a6a154b1a600122154b1a70154bca
:1018d0001d600023194a1370134a1370154a1360d0
:1018e00044461ce5dff82c80d8f8000007f0eefc39
:1018f0000023c8f80030baf1000f3ff46dafdfe00d
:101900008c0200208d020020c0020020be020020b8
:101910009c020020a0020020780200208802002003
:101920000b090020980200208f0200208e02002068
:10193000d60100207c0200208402002081020020c9
:10194000b8020020bc020020a40200208002002077
:1019500020232b7200236b7251e76d4a13684b44ae
:101960001360b2464ff00009cdf80890f4e42a7aeb
:1019700002f01002674b1b78934200f0c180664b67
:101980001b88093b9bb263490a709946604a1268fa
:101990006249096813448b4286bfa1eb020900210a
:1019a00001215f4b19705ffa88f8a5f8088012f0e2
:1019b000010354d14fea520e5a4a106830f81e20e3
:1019c00048ea0228a5f808805fea590c13d00021e4
:1019d0001a46724400eb4203b3f8028030f812302a
:1019e0001b0a05eb410243ea08235381013189b206
:1019f0000a468c45edd8eb88c3f30b0343f4405300
:101a0000eb802b8903f47f432b81454a1278002a0f
:101a10003ad0404a127813432b81b9f1060f3ad8d5
:101a20000a232b7000236b70c9f107032a8942ea4d
:101a300043032b813a4b1b78012b30d0dff8e48035
:101a4000d8f8000007f042fc0023c8f80030304a04
:101a50001360354a1370a246994602937ce4314bd9
:101a60001968520831f8123023f0ff0343ea0808de
:101a7000a5f8088001eb420109f1ff32023105f1be
:101a80000a0007f0b2fab6e7224a127842f00102e1
:101a900013432b81c1e709f103032b80cae71c4ada
:101aa00013684b441360a2464ff00009cdf808902c
:101ab00052e4012306930023079394e44ff00e0aa7
:101ac0000023174a1370184a1370164b186820b178
:101ad00007f0fcfb0022134b1a6000230c4a136032
:101ae000994602934ce44ff0010ae9e74ff0030aec
:101af000e6e74ff00009cdf808904ff0080a2be414
:101b00004ff00009cdf808904ff0010a24e400bf1f
:101b10007c0200208e020020c401002084020020ec
:0c1b200081020020a00200208f020020a3
:020000040000fa
:101b2c00f0b585b00023029301939a4a94899a4a9e
:101b3c0095899a4a13809a4a1370022007f0d0f9bb
:101b4c000268984b1a80436803f00203002b0cbf09
:101b5c0003260126032007f0c3f90368924a138079
:101b6c00426802f00202002a0cbf032201229bb23f
:101b7c008e49088800fb02328d4909888a420bdda8
:101b8c008c4f3f880f44bb4206da0221032003f03e
:101b9c0009fb1e2005b0f0bd874f3f88ba4204dd1b
:101bac00864a12883a449342efdb7e4ab2f800e050
:101bbc00834a128806fb02e6b1420ada7d4a128891
:101bcc0011448e4505da0221084603f0ebfa1d207c
:101bdc00e0e7b74204da794a12881744be45f2dbd3
:101bec00b34202da03449e45eddb04224ff4186144
:101bfc0003a803f013febdf80c30039304224ff43a
:101c0c001a6102a803f00afe042240f6a4110deb9f
:101c1c00020003f003fe019e5e4b59885e4b5a880e
:101c2c00039b13f4106f00f0748113f4007f01d147
:101c3c003020afe72c400bd014f0040f00f059818a
:101c4c0014f0080f04d113f4806f01d03020a1e7f9
:101c5c00029850b14f4d2d69854201d9362099e734
:101c6c00584da84201d9362094e703f4c065b5f568
:101c7c00c06f10d05448007800bb514a118800291d
:101c8c0052d14a4a1488002c00f0b88113f4806faa
:101c9c005dd102224be1002eecd08642c0f03781a0
:101cac0014f0100f01d1302074e70120464c247839
:101cbc00002ce2d013f4806f04d038e113f4806f61
:101ccc000ad10020032900f01a81032a00f019819f
:101cdc0013f4007f04d03be013f4007f30d10020dc
:101cec00022900f01081022a00f00f81032900f074
:101cfc0021810c460ee0324b1c8834b12b4b1a88d8
:101d0c00002a40f03281012404e0284b1a8800326a
:101d1c0018bf01222d4b1b78002b40f07581002c35
:101d2c0040f01481292035e7002840f013811f4a28
:101d3c0012887ab113f4806f04d10222114607e0a5
:101d4c000020f4e003220221f1e00322f2e003225e
:101d5c00022908d1029b0f494b624b600e494b6222
:101d6c004b600224eee00c46d4e70120184a1080a8
:101d7c00b1fbf3f082b2174c228003fb1013002b43
:101d8c0000f0c8810132134b1a80c3e10121104bc2
:101d9c001980bae124020020e0010020f2000020aa
:101dac0010010020e8000020220100200a01002080
:101dbc00ce010020c4010020bc010020d60100206f
:101dcc00dc000020000050c368020020d40000207a
:101ddc000c0100200601002004a8002340f8103d4f
:101dec0004224ff4806103f019fd009b9ab2cab132
:101dfc000232a3b246f2a71102fb0313db08904a8e
:101e0c00a2fb03231b0a8f4a138000228e4b1a80dd
:101e1c008c4b1b88002b00f093818c4b1b782bb9bf
:101e2c001f20b7e60022874b1a80eee7884b1b7801
:101e3c003bb1884b1b8823b1874a138843f48063da
:101e4c0013800023854a1380854a1380854a1380aa
:101e5c00854a1380854a1370854a1370854a13800e
:101e6c00854a1385538582f84030844a13855385ff
:101e7c0082f84030039a12f4007f18d0029900299e
:101e8c0000f0a3804b097e48a0fb0303db09042b65
:101e9c0017d80120714b188012f4806f07d0019b6a
:101eac00994240f297806d4b1a886f4b1a80694ba0
:101ebc001b88b3b9734b1b88bbb905f0a7f900207d
:101ecc0068e65b009bb27048a0fb0303db08634829
:101edc000380e1e75b000a22b3fbf2f3624a138052
:101eec0084e0022006f006fbe4e7032006f002fb88
:101efc00e3e730204ee630204ce630204ae6302036
:101f0c0048e6302046e6302044e6302042e6002009
:101f1c00cce65e4b187800283ff4edae8b1e9bb2de
:101f2c00012be8d9931e9bb2012be6d90020032983
:101f3c007ff40eaf029b51494b624b604e494b6292
:101f4c004b600324524b1b78002b60d1002a5ed1ce
:101f5c0029201fe64b4a1288002aebd013f4806f1d
:101f6c007ff4f3ae02220321e1e722220124d1e621
:101f7c00374b1b78002b40f0978000233f494b8058
:101f8c003d494b8043490b8043490b8043490b80af
:101f9c0043490b80012840f0b880029bf1189e4207
:101fac00fff4e3aeb1fbf3f082b203fb10134bb9b9
:101fbc00511c3a4b1980374b1a80abe00121394b3d
:101fcc0019708ce0354b1a80dce612f4806f3ff40c
:101fdc006eaf019b0b445b09294aa2fb0323db096f
:101fec00042b3ff677af01221f4b1a801e4a1b4b66
:101ffc001988138803eb5103138058e7244b1b7883
:10200c000bb92920c6e522460cb9002ab0d0012113
:10201c000f4b19700f4b1b88002b4ad04ff480616b
:10202c000d4b1980a31e9bb2012b4ed801211d4bc9
:10203c00197057e04ff48061074b1980144644e047
:10204c0089b5f81418010020d80000201c010020cc
:10205c001b010020dc000020f2000020ea00002020
:10206c00e000002016010020f0000020f400002009
:10207c0011010020ee000020e001002024020020cd
:10208c00c55a7c0a0a010020cdcccccc68020020b9
:10209c00d400002006010020e40000200c010020e8
:1020ac001e01002014010020294b1c88002cc1d1da
:1020bc002246284b1b881bb14ff40061264b19801c
:1020cc00a31e9bb2012b7ff679af931e9bb2012b03
:1020dc0008d80121214b19701d4b1b8813b9002105
:1020ec001d4b19801e4b5c801e4b5a8000231e49d1
:1020fc000b801e490b801e490b801e490b8001284a
:10210c003ff44baf022c3ff441ae032a02d0012224
:10211c00154b1a800023184a138004a840f8103d70
:10212c0004224ff4846103f079fb009c084b1b885c
:10213c001bb1a3b2002b7ff44fae00220f4b1a80c1
:10214c000f4b1b78002b3ff471ae1f2022e500bf14
:10215c00dc0000200a010020f20000201401002005
:10216c0024020020e001002006010020e4000020f1
:10217c000c0100201e0100206c0200201801002020
:04218c001c01002012
:020000040000fa
:102190002de9f04f8bb004900c4616461d46ddf835
:1021a00050809df854b01ffa81fa9b89c3f3032233
:1021b0000692dbb20593072a00f03e821946ab690e
:1021c00093f80090b9f1000f40f04182a0f5e05380
:1021d000103b9bb21f2b40f23882a0f5b0539bb24c
:1021e000b3f5007fc0f04082a0f5d0539bb2b3f5a9
:1021f000007fc0f03c824ff23003984208bf89460e
:1022000025e2f4b90eb198f80090079439e0214620
:10221000284606f0b5fc8288b24b1b7803f00e030b
:1022200013eaa2030bd112f0380f02d01a23039342
:1022300016e2002a0cbf05230723039310e25cb3c8
:10224000d1460499a1f5e053103b9bb21f2b12d944
:10225000a1f5b0539bb2b3f5007f0cd3a1f5d053d9
:102260009bb2b3f5007f06d34ff23003994202d000
:102270000023079305e0ab691b78003318bf0123e7
:1022800007932f6a5fb1cdf800b04346324621462e
:102290000498b8470390e3e1d1460794f1e7002e94
:1022a00000f0a081ca4500f2a081544607230393a1
:1022b00000230893049ba3f5e053103b9bb20993c2
:1022c00031e1102a40d0202a40f05c8110f00f0f3d
:1022d00040f0a081079b5bb13288b8f800309a4289
:1022e00040f09b817288b8f802309a4240f09881a1
:1022f000b8f800303380b8f80230738008f1040871
:10230000012308930be1022b17d8002b40f091809a
:10231000bbf1000f00f06f817b8813f00f0f05d029
:10232000184410f00f0f08bf08f10208c3f303139d
:1023300008eb430801230893f1e0032b04d0042b9e
:10234000c4d073e0072bc1d210f00f0f40f05981b9
:10235000b8f80070079b1bb13388bb4240f0548132
:10236000099b1f2b0ed8a7f5b0539bb2b3f5007f86
:1023700008d3a7f5d0539bb2b3f5007f02d3002f4b
:1023800040f04581049ba3f5e153123b9bb2012b26
:102390007bd9378008f1020801230893bfe00b2b9b
:1023a0002bd943e02d2b44d021d81e2b41d018d857
:1023b000152b01d01b2b39d110f00f0f40f03381ba
:1023c000b8f800303380b8f802307380b8f80430c1
:1023d000b380b8f80630f38008f1080801230893a9
:1023e0009de01f2bb0d0202b3ff470af1ee0372ba9
:1023f00015d9a3f51873032b18d810f00f0f40f060
:1024000018817a880732d2104146304606f0edfd39
:102410007b881b0908eb4308012308937fe0302bde
:1024200007d22e2b90d02f2b3ff450af18230393bd
:1024300016e17a882c4b33f8122000f00f0e02fac6
:102440000ef1338823ea01031bb2bbf1000f10d059
:10245000b8f8002011400b439bb233807b881844ae
:1024600010f00f0f40f0b48008f102080123089328
:1024700055e0b8f8001031ea020c40f0bf800a4085
:1024800002fa0ef213439bb2e7e7012c1bd0082c93
:102490007ff47faf154a00235361154911615360e2
:1024a000144a53611161536017f0020f3ff471af8a
:1024b0000e4a5385138582f840300e4a53851385a2
:1024c00082f8403065e73388bb4207d0394604982c
:1024d00001f070fe0390002840f0c2800122064bfc
:1024e0001a7056e7db000020448d00002402002013
:1024f000a0860100e001002068020020002c62d0cc
:102500007b8813f00f0f05d0184410f00f0f08bf91
:1025100008f102081b0908eb430818230393013450
:10252000a4b24c4557d8e6b23146284606f028fbff
:1025300007462946304603f065fc584b1b7803f0ec
:102540000e03ba8813eaa203d8d0ae69002c00f0bb
:102550009180c0f30f1306eb4306a24507d0bbf1f1
:10256000000fdcd0a245dad8002c00f087803b8831
:10257000b3f5e06f06d37a88082a3ff6a2ae02f1df
:102580002f039bb2112b3ff417af3ff60baf052b78
:102590003ff44faf7ff6b7ae082b7ff6d3ae092bd3
:1025a0007ff4fdae10f00f0f40d17a880732d210c1
:1025b0004146304606f019fd7b881b0908eb4308ad
:1025c00001230893abe708f1020818230393a6e759
:1025d00001230893a3e7089b002b039b18bf00234c
:1025e00003933de0002303933ae00723039337e08e
:1025f0001323039334e01823039331e0122303934e
:102600002ee0052303932be01c23039328e01223e1
:10261000039325e00523039322e01c2303931fe08b
:102620001c2303931ce00523039319e00523039364
:1026300016e00523039313e0bbf1000f02d005233e
:1026400003930de04ff0000905e0ddf81490bbf1b5
:10265000000f7ff4d6adca457ff6d9ad11230393a1
:1026600003980bb0bde8f08fddf81490efe7ddf8cc
:102670001490ece7baf1000f7ff471af069b072bc3
:102680003ff475afb8f80030dab205999142afd394
:10269000338008f102080123089340e7db000020a3
:020000040000fa
:1026a0002de9f04f89b00590049115469946129c8a
:1026b0009df84ca01ffa81fb9f89c7f30328ffb246
:1026c000b8f1070f00f0bc81b0f5805fc0f0bf81aa
:1026d000d9f818301f78baf1000f1fd1bb4505d9c2
:1026e00011230293029809b0bde8f08f049948467f
:1026f00006f046fa838813b905230293f2e79a4a53
:10270000127802f00e0212ea430214d103f007031a
:10271000002b0cbf06231a230293e3e70697d9f890
:102720001c605eb1cdf800a023462a4604990598a6
:10273000b0470290d6e706975f46f0e7059bb3f5f2
:10274000805f04d2049b93b902935e4605e05f4527
:102750000ad35e46002302930493cdf81c80cdf883
:102760000c90ddf814901ee100230293bae7049e5a
:102770003146484606f004fa43880733db109db221
:1027800006f1804b0bf1ff3bd9f8182052f82b10c3
:1027900011f0010f25d021f0010632466b0811d04f
:1027a000013b9bb201335f00e01931460b881b0ae5
:1027b000238031f8022f43ea022324f8023ba0428f
:1027c000f4d1f21915f0010f00f02581238803f4ec
:1027d0007f432380128843ea12232380002302933d
:1027e00080e70a8822804a8862809bb21a1f0431df
:1027f000201d06f0fafb0023029373e7079b072bcb
:1028000000f04581bdf8183024f8023bc7e0bef166
:10281000100f31d0bef1200f40f04c8118f00f0f97
:1028200040f0028132f8103023804b8863800434fa
:1028300001230493b3e0022b15d8002b6ed1baf11b
:10284000000f00f0eb806b8813f00f0f04d098445a
:1028500018f00f0f08bf0234c3f3031304eb430453
:10286000012304939be0032b06d0042bd6d018231e
:10287000029337e7072bd1d218f00f0f40f0d18029
:1028800032f8103024f8023b0123049387e00b2b2d
:10289000edd818f00f0f40f0cd806a880732d210c3
:1028a000204606f0a2fb6b881a0904eb420413f0e1
:1028b0000f0f00f0a38023782380012304936ee0a0
:1028c0002d2b2bd01cd81e2b28d014d8152b01d083
:1028d0001b2bccd118f00f0f40f0a98032f810302c
:1028e00023804b8863808b88a380cb88e380083467
:1028f0000123049353e01f2bbed0202b8ed0b6e7cc
:10290000372b04d9a3f51873032bc2d9afe7302bab
:1029100004d22e2bb0d02f2b80d0a8e708f00f0eba
:102920006b88124931f8133003fa0ef39bb232f878
:102930001020bef1000f01d1002020802088baf1c4
:10294000000f0bd01340034323806b88984418f08a
:102950000f0f50d102340123049320e0134043fab7
:102960000ef303432380f0e7db000020448d0000da
:102970006b8813f0f00f0ad00023194624f8021fc9
:102980000133dbb26a88c2f303129342f6dbab88f1
:1029900003f00703002b0cbf06231a230293013612
:1029a000b6b2b74230d3002e58d0b9f5805f55d3b8
:1029b000f5b20399284603f025fa80462946039884
:1029c00006f0def80546504b1b7803f00e038288b4
:1029d00013ea420351d118f00f0f00f092806b8878
:1029e00013f00f0fc4d0984418f00f0fc0d100237c
:1029f00063800234bce701230493d0e701230493ee
:102a0000cde701230493cae7049b002b029b18bf68
:102a10000023029366e60023029363e618230293e1
:102a200060e6052302935de6052302935ae605233b
:102a3000029357e60523029354e60523029351e6d9
:102a4000baf1000f3ff44aae052302934ae6baf109
:102a5000000f3ff443ae0523029343e6f1b203981f
:102a600006f08ef80546284b1b7803f00e0382888b
:102a700013ea420343d04ff00008b34504d0baf143
:102a8000000f8cd0b3458ad8002e3ff4b7ae039b1d
:102a90009a69c8f30f1002eb40012b88b3f5e06f81
:102aa00008d3b5f802e0bef1080f3ff6b0ae0ef164
:102ab0002f039bb2112b3ff40daf3ff601af052b57
:102ac0003ff42caf7ff6b7ae082b7ff6d3ae092bc1
:102ad0007ff4ddae18f00f0fafd16a880732d21045
:102ae000204606f082fa6b881a0904eb420413f0c0
:102af0000f0f86d023782380012304934fe74ff0f4
:0c2b00000008002323806ae7db000020af
:020000040000fa
:102b0c002de9f04f0d4697b090461c46074618b17c
:102b1c0083690bb904f01cfe8f4b9d4258d17d6824
:102b2c00ab8918075ed52b69002b5bd0002309936a
:102b3c0020238df8293030238df82a304ff0010aec
:102b4c00c1464e4616f8013b002b56d1b9eb080b8b
:102b5c000bd05b4642462946384605f0a1f80130b9
:102b6c0000f05981099b5b44099399f80030002bc4
:102b7c0000f0518100234ff0ff320493079305922c
:102b8c0006938df8533005223178744803f0a2fe79
:102b9c0006f10109049b002833d1d90644bf202239
:102bac008df853201a0744bf2b228df8532032780e
:102bbc002a2a2ed0079a00210a20b146013699f80c
:102bcc000030303b092b72d900292fd007922de011
:102bdc00634b9d4201d1bd68a2e7624b9d4208bf89
:102bec00fd689de72946384602f0f4fe00289dd08a
:102bfc004ff0ff3017b0bde8f08f252ba6d0b146b3
:102c0c009fe7564a801a0afa00f0184304904e4681
:102c1c00b9e72268002a04f10401bbbf524243f019
:102c2c00020307920792b8bf04930c4699f8003040
:102c3c002e2b10d199f801302a2b09f101013ad130
:102c4c002268002a04f10403b8bf4ff0ff3209f1e7
:102c5c00020905921c46444e99f800100322304696
:102c6c0003f038fe40b14023801b03fa00f0049bb4
:102c7c000343049309f1010999f800103b488df8be
:102c8c002810062203f026fe9df82820692a09f157
:102c9c00010827d037d8582a00f0c3801ed8002a44
:102cac0000f0ec8001238df85220089348e000fbe3
:102cbc000232012181e70023059318460a26894632
:102ccc00013199f80020303a092a03d9002bc2d0df
:102cdc000590c0e706fb00200123f0e7632a29d00a
:102cec00642adfd1049b13f0800f04f104022dd071
:102cfc002368002b144603da2d225b428df85320f7
:102d0c001b490a2244e0702a00f0968009d86f2ae9
:102d1c00c8d1049b13f0800f04f104012cd023685c
:102d2c002de0752af5d0782abcd178238df8553052
:102d3c00104979e023688df852300123089304344c
:102d4c0000238df853300df1520642e013f0400f82
:102d5c00236818bf1bb2cce7c48d00002686000088
:102d6c00e48d0000a48d00002c860000308600004d
:102d7c0004860000158600005806d0d523886f2adb
:102d8c000c464b490cbf08220a2200208df8530038
:102d9c00059e0696002e0df1530ec0f2828004980b
:102dac0020f004000490002b5cd1002e7bd17646e1
:102dbc00082a0bd1049bd80708d5089b059a9a4280
:102dcc00debf302306f8013c06f1ff36aeeb0603fe
:102ddc000893384b009303aa2b4604a9384602f0fb
:102dec00c7fb013017d0089b32462946384604f001
:102dfc0057ff01300fd0049b990705d50026039a85
:102e0c00079b9b1a9e423ddb039a079b9342b8bfdc
:102e1c0013465a1c41d1ab895b063ff5e9ae0998c4
:102e2c00e8e623498df85520049a12f0800f04f13e
:102e3c00040006d0236807e0049b43f020030493ae
:102e4c0073e75306f6d52388d60748bf42f0200215
:102e5c00044648bf04921bb9049a22f02002049243
:102e6c00102292e77646b3fbf2f002fb1033cb5cf8
:102e7c0006f8013d03460028f5d199e708920df1bb
:102e8c005306a6e701230df129022946384604f022
:102e9c0007ff0130bfd00136b1e7099a13440993fb
:102eac004ee6002bded116ae0b7806f8063d7fe71a
:082ebc0004860000ad7c00005b
:020000040000fa
:102ec400f0b585b0044600238df80f30058905f070
:102ed4007f05052d06d00388072b09d8062318463d
:102ee40005b0f0bd0388092b00f2a4800623f6e7a1
:102ef400032d00f09f80052d00f09c80012d21d032
:102f040003238df80f309df80f1000220a2323703d
:102f14006270238923f07f0343f007032381a272a5
:102f2400e272914b53f82130e360904b1a800221f6
:102f3400204603f06dff03460028d0d08c4b1c6064
:102f44000023cce78389052b01d90221f0e7894dc1
:102f540000686168a26807c5a2892a8013f0ff038c
:102f64000ed10025814b1d8004f10c06e8b204f05b
:102f74007ffc26f8020f0135052df7d1122322e03c
:102f8400013bddb2794b1988002934d07a4b1a8879
:102f94000c3a92b204f10c0378480088adf80c00a6
:102fa4000139724801800df10f01009103a92846ef
:102fb40003f048fbbdf80c20704b1a806e4b1b8845
:102fc400063b1b1a9bb223809df80f30002b9ad12d
:102fd400238923f07f0242f002022281634a12888d
:102fe4006281002a00f0bd8023f0ff0343f08203d6
:102ff400238182219ce7284604f03afc4ff4805355
:10300400adf80c305c4b1988a1f10e0292b204f1b8
:103014000e034000904209dd0c398eb2811a701ef5
:10302400014491fbf6f151480180bce700204f496f
:103034000880b8e7a38998b2adf80c30b0f5805f8a
:1030440003d205238df80f305de705f069fe0746ce
:10305400002800f08280032d0bd0e689f6b206f03a
:103064000bfa4388dbb29e4234d911218df80f103c
:103074004be706f001fa0368c4f80e3000233a4621
:103084001946bdf80c0002f0edfa00f10c0292b200
:10309400394b1b88063b9a4210dd0c229df80f30f9
:1030a400002b7ff430afa372e3722280238923f0d4
:1030b4007f0301351d432581022139e704f1120301
:1030c4003a460021bdf80c0002f0ccfa00f10c02e3
:1030d40092b2e3e73146384605f050fd03682361b8
:1030e4008388a382e389dbb2e381384606f0c4f91e
:1030f4004388c3f30323083b9bb2012b10d900235d
:103104003a463146bdf80c0002f0acfa00f1100268
:1031140092b2194b1b88063b9a4212dd1022bde77e
:10312400002eecd1164a166850689168c4f81660ef
:10313400c4f81a00c4f81e10127b84f822201c2242
:10314400ace704f116033a463146bdf80c0002f030
:1031540089fa00f1100292b2a0e708238df80f302b
:10316400d1e60221e4e600bf80730000940200204f
:10317400d0000020a8020020c40100207402002016
:04318400fc08002023
:020000040000fa
:103188002de9f04f85b083469246002302930193c0
:103198008df803308df8023001f0030502f00309c1
:1031a800a94419f0030f07d009f1040303f00c0335
:1031b800a3eb09095ffa89f90aeb05044c44a4b2a8
:1031c8007f2c06d9e3b243f08003640004f4fe4484
:1031d8001c43adf80c10adf80ea0042203a94ff45f
:1031e800427002f05df84ff000430393042203a9f4
:1031f8004ff4437002f054f805f058ff0b238df894
:10320800083000238df8093004238df80a307d4eec
:103218007368db6898470028fad17a4b5b681e68a8
:10322800032301aa194602a8b04705f00dff754e01
:103238007368db6898470028fad1734b9df805201e
:103248001a709df806205a7004a800f80d4d6d4bb1
:103258005b685b680121984705f0f6fe694e736864
:10326800db6898470028fad1baf17f0f06d8674b78
:10327800df780026634c4ff001081fe0240a04a8f9
:1032880000f80d4d5f4b5b685b680121984705f0be
:10329800dbfe5c4c6368db6898470028fad1e6e7f8
:1032a80063689b6841460df10200984705f0ccfe23
:1032b8006368db6898470028fad10136be42efd12f
:1032c800504c10e063689b6839460df1020098473e
:1032d80005f0bafe6368db6898470028fad1013523
:1032e800ae42efd1454605f1ff385ffa88f8a5b13f
:1032f80063689b6801210df10200984705f0a4fe60
:103308006368db6898470028fad1b8f1000fe9d064
:103318003e4b1e7900250127e2e73a4cdff8ec80a6
:1033280014e000238df803301be063689b68514666
:103338000df10200984705f087fe6368db6898473f
:103348000028fad10135af42efd1b2460af1ff3673
:10335800b6b2baf1000f20d0002ee2d1ff238df8cb
:10336800033063681d6801230df1020219460df14f
:103378000300a84705f068fe6368db6898470028e3
:10338800fad19df802300bf8013b002eddd098f8f9
:10339800047000254ff0010ad5e71a4c1b4e10e0c7
:1033a80063689b6849460df10200984705f04cfe9a
:1033b8006368db6898470028fad101374745efd1a1
:1033c800a94609f1ff35edb2b9f1000f14d06368d1
:1033d8009b6801210df10200984705f035fe6368ee
:1033e800db6898470028fad1002de9d096f80480c8
:1033f80000274ff00109e1e705f04efe05b0bde8f2
:10340800f08f00bfec080020640000207c0800203a
:020000040000fa
:1034180038b5824b1b78002b5fd0814bb3f9003055
:10342800002b4ed17f4b1b88c3f30714242b2bd0c2
:1034380010d8123b012b00f2ca807b4b1b7803b3d8
:1034480001f09afa794b1b78002b00f0e280784b58
:103458001d88bde0482b40f0ba80764b1b781bb323
:10346800754b1b78002b00f0bd80744b1b78002b2c
:1034780040f0cb80724b1b88002b0cbf1a251b25f4
:10348800b1e005f0fbffdbe7674b1b784bb102f0bf
:1034980035fa664b1b78002b00f0bd80644b1d8805
:1034a80096e005f0effff2e7654b1d88002d40f030
:1034b800ae800122634b1a7008248be005f0e6ff0a
:1034c80096e0584b1b88242b47d007d8123b012b7a
:1034d80000f28580544b1b7823bb38bd482b7ed126
:1034e800514b1b78002bf8d0524b1b78002b55d032
:1034f800554bb3f90030002befdd544ab2f90020e8
:103508009a42eadb0023504a1380504a1380464a05
:10351800137005f0b9ff002839d10122494b1a7000
:10352800082429e00022404b1a7005f0a5ff054643
:1035380060b90122464b1a703a4b1c7814f00f04fc
:1035480003d00022354b1a705ae038bdff28c4d08a
:1035580005f094ff01f010fa38bd334b1b78002baf
:10356800bbd00022304b1a703a4805f089ff38b9b1
:103578000122394b1a7004240025284b1d703fe0a6
:10358800ff28aad005f07eff02f0b8f938bdff2861
:10359800a3d005f07bff05f015fe38bd284b1b882e
:1035a8001bb1264b1b78002b97d000221e4b1a709c
:1035b80005f06aff20b90122224b1a700824dbe7c4
:1035c800ff288ad005f062ff05f0fcfd38bd002514
:1035d800002c82d00022114b1a708db10ee000250c
:1035e8002c46f5e72d25104b1b78002b3ff466afd2
:1035f80005f0e8fd8cb10022084b1a7044f0100465
:103608002946204601f01ef838bd1a25ebe71b2590
:10361800e9e70125eee70125ece738bd08010020c0
:1036280012010020d6000020da000020e20000206d
:10363800de00002014010020f4000020100100200a
:10364800dc00002015010020ee000020e60000202c
:0c365800ba010020f20000201a0100203e
:020000040000fa
:10366400854b1a8841f6fe739a4201d8142070479c
:1036740070b50446002005f037fc436813f4803f1e
:1036840000f0f18003f00c02042a01d0162070bd72
:1036940013f0020f00f0e9800268130c223b9bb286
:1036a400de2b00f2e480a2f580539bb2b3f5805f79
:1036b40080f0df80012005f017fc436813f4803f9d
:1036c40000f0cf8013f00c0f40f0c38013f0020f12
:1036d40000f0c1800268130c223b9bb2de2b00f287
:1036e400bc80a2f580539bb2b3f5805f80f0b780b5
:1036f400032c14d8022c51d8604b1b78a34240f2ff
:1037040094805f4e5d4d204605f0eefb43683360c8
:103714000134e4b22b78a342f5d8002070bd012215
:10372400584b1a70032005f0dffb03681a0c40683d
:1037340010f4803f2ad0002a79d0534909888a425c
:1037440005d00321032001f031fd1e2070bd0029a6
:103754006fd0082a6fd810f00c0f6ed19bb24b4a71
:103764001178022905d04a4a12889a4207d00221c8
:10377400e8e7a3f580539bb2b3f5805fe2d210f083
:10378400020fb7d000223f4b1a70b3e7002a56d17c
:103794003d4b1b88002badd00321d3e7022005f05d
:1037a400a3fb03681a0c406810f4803f35d0002a4c
:1037b40047d0384909888a4205d00321022001f004
:1037c400f5fc1d2070bd00293dd0082a3dd800f02d
:1037d4000c02042a01d00421f0e79bb22b4a117891
:1037e400022914d1a3f580539bb2b3f5805fe5d2cf
:1037f40010f0400f14bf01220022274b1a7010f062
:10380400020f3ff479af00221e4b1a7074e7234a6b
:1038140012889a42ecd00221d0e7c2b91d4b1b8812
:10382400002b3ff469af0321c8e7002070bd0421d9
:1038340088e7032186e7032184e7042182e7032143
:1038440080e70421bae70321b8e70321b6e703219f
:10385400b4e7162070bd162070bd162070bd16206a
:1038640070bd162070bd162070bd162070bd1620c8
:1038740070bd162070bd00bf0e0100202001002085
:1038840084090020d40000200a010020db0000206d
:1038940022010020dc0000201c010020e8000020a0
:020000040000fa
:1038a4002de9f04f87b001900d4692460023049312
:1038b40003938df80b308df80a30adf81410adf881
:1038c4001620042205a94ff4447001f0ebfc4ff0dc
:1038d40000430593042205a94ff4457001f0e2fc6e
:1038e40005f0030505eb0a0919f003091cbfc9f12a
:1038f40004095ffa89f905f0dbfb02238df8103027
:1039040000238df8113020238df81230674c636842
:10391400db6898470028fad1644b5b681c68032372
:1039240003aa194604a8a04705f090fb5f4c6368fe
:10393400db6898470028fad15d4b9df80d201a707a
:103944009df80e205a705b4b9f7c0026574c4ff01d
:1039540001080de063689b6841460df10a00984731
:1039640005f074fb6368db6898470028fad10136d8
:10397400be42efd14d4cdff83cb110e063689b6868
:1039840039460df10a00984705f060fb6368db686f
:1039940098470028fad10135ae42efd1454605f1ea
:1039a400ff385ffa88f8a5b163685b6801210df1ff
:1039b4000b00984705f04afb6368db6898470028ca
:1039c400fad1b8f1000fe9d09bf813600025012764
:1039d400e2e7019b03f1ff38344cdff8d8b010e084
:1039e40063689b6851460df10a00984705f02efb69
:1039f4006368db6898470028fad10135ae42efd1fd
:103a0400ba460af1ff37bfb2baf1000f17d018f85f
:103a1400013f06a800f80d3d63685b6801219847e3
:103a240005f014fb6368db6898470028fad1002f7f
:103a3400e6d09bf8136000254ff0010adee71b4c2b
:103a44001c4e10e063689b6849460df10a009847d4
:103a540005f0fcfa6368db6898470028fad101375f
:103a64004745efd1a94609f1ff35edb2b9f1000f91
:103a740016d006a8002300f80d3d63685b68012199
:103a8400984705f0e3fa6368db6898470028fad1a1
:103a9400002de7d096f8138000274ff00109dfe7e7
:103aa40005f0fcfa07b0bde8f08f00bfec08002079
:083ab400640000207c080020e2
:020000040000fa
:103abc0008b5694b9b7dd3b1674b5b8b13f0020f41
:103acc0016d0664bff2283f82020022283f8212097
:103adc00624b93f820305bb2b3f1ff3f00f08b8068
:103aec005e4b93f820305bb2062b00f09c8008bd37
:103afc00594b5b8b13f0010f07d0584bff2283f807
:103b0c002020022283f82120e2e7534b5b8b13f039
:103b1c00040f07d0514bff2283f82020012283f899
:103b2c002120d5e74d4b93f820305bb2032b42d0cc
:103b3c00042b10d0022bcbd1484b1b692bb100218d
:103b4c00464b988804f086f8c2e70121434b9888cd
:103b5c0004f080f8bce7414a9369126993420bd098
:103b6c003e4a9168581c9061ca5c3b4b9a621a465b
:103b7c00d369002bfcd1abe7384b5b6973b1374b86
:103b8c009b885b0043f00103334a5362d369002bdb
:103b9c00fcd10322314b83f8202099e72e4a53683d
:103bac0043f440335360d369002bfcd106222b4bda
:103bbc0083f820208ce7294a5369013bd2699a4249
:103bcc000cd0254ad369002bfcd1244bd968da6977
:103bdc00501cd861204b9b6a8b5479e71e4a536862
:103bec0043f4e0235360d369002bfcd106221b4b1a
:103bfc0083f82020e5e70022184b83f82020164a92
:103c0c00536843f440335360d369002bfcd18322b7
:103c1c00114b1a76114b5b6a002b3ff468af0f4abd
:103c2c00906a984708bd0d4b002283f8202083f83a
:103c3c0021208322084b1a761a46538b03f030034b
:103c4c00102bfad1054b5b6a002b3ff450af034aa3
:103c5c00906a98474be700bf0020014150080020b4
:020000040000fa
:103c6c0010b5564a536803f47063d26912f0010f11
:103c7c0031d0524ad06852494a69c9688a422ad21c
:103c8c006bb94f4b5968541c5c6188544b4bdb69c6
:103c9c0013f0020f3fd00222484b5a6125e0484beb
:103cac005968541c5c6121f81200444bdb6913f019
:103cbc00020f30d00222414b5a61414a93699268fb
:103ccc00934246d23e4a1168581c906131f8132039
:103cdc003a4b1a6115e0394ad26912f0020f1ad028
:103cec000221364a5161002be7d1354a936992681b
:103cfc00934222d2324a1168581c9061ca5c2f4bf5
:103d0c001a612f4b9a699b689a422ed02c4b5a6998
:103d1c00db689a4234d02b4b1b78002b47d0274bb7
:103d2c00db6913f0040f04d0254b5a69db689a4207
:103d3c002cd00422214b9a6110bd214b1b69002b06
:103d4c0036d0ff221d4b1a611d4a1369013b1361ca
:103d5c00d7e71b4b1b69002b2ad0ff22174b1a618c
:103d6c00174a1369013b1361cbe7154b1b69002bf9
:103d7c00ccd10122134b1a70134a104b1a60cae7ac
:103d8c000e4b01225a6102229a61c4e70c4b0022ad
:103d9c001a770720094948610a490a701b6a33b12e
:103dac00074a506a9847074b1b78002bc1d110bdae
:103dbc00034b9a699b689a42a8d1dae70034004217
:0c3dcc00680000207709002002000001c0
:020000040000fa
:103dd8002de9f04387b00e468df8072000230593a0
:103de80004938df80f308df80e300b238df81430b6
:103df800030a8df815308df8160005f057f9464c72
:103e08006368db6898470028fad1434b5b681c68f5
:103e1800032304aa194605a8a04705f015f93e4c46
:103e28006368db6898470028fad13c4b9df811205d
:103e38001a709df812205a70374b5b685b68012135
:103e48000df10700984705f0fff8334c6368db680d
:103e580098470028fad1324bdf7800252e4c4ff0d6
:103e6800010805e06368db6898470028fad1013546
:103e7800af4208d063689b6841460df10e00984731
:103e880005f0e2f8eee7244c254f16e063689b68de
:103e980049460df10e00984705f0d6f86368db68cf
:103ea80098470028fad101354545efd19df80730ec
:103eb800013bdbb28df8073043b39df80730012b87
:103ec8000cbfff2300238df80f3063681d680123a2
:103ed8000df10e0219460df10f00a84705f0b4f8d0
:103ee8006368db6898470028fad19df80e3006f819
:103ef800013b9df80730012b05d097f80480002579
:103f08004ff00109d0e700238df8073005f0c4f819
:103f180007b0bde8f08300bfec0800206400002073
:043f28007c080020f1
:020000040000fa
:103f2c0030b583b04ff48033019303f0e7f9494b7c
:103f3c001b78002b39d103f03bfc044610f0010f29
:103f4c004cd0454b1b78002b37d010f0100f5dd1a7
:103f5c00414b1b78002b59d13e4b1b781bb3019b5b
:103f6c0013f4803f55d014f4007f5ad1019b13f405
:103f7c00003f61d0394b1b7883b903f0b9fb374b49
:103f8c001b78002b5dd0019b43f00073019304223e
:103f9c0040f60c010deb020002f0a6fa03f008fc4f
:103fac0010f4807f52d103b030bd042240f60c01d6
:103fbc000deb020001f032fcbde7002502a840f831
:103fcc00085d04224ff4907101f028fc24f01104d8
:103fdc00a4b229469df80000fcf74cf914f0100f20
:103fec00b6d01d4b1b788bb91d4b187810f0100fe9
:103ffc00b2d120f01003012baed024f01004a4b2e7
:10400c00002100f00f00fcf735f9a1e7fff7fef9ee
:10401c00a2e7134b1878002100f00f00fcf72af9e7
:10402c00a1e710480023036004220f4b198802f00b
:10403c005bfa02f001fa99e7084b1b78002badd024
:10404c009be7019b23f000730193a0e701f02cf890
:10405c00a9e700bfba01002008010020d801002008
:0c406c00db000020f8000020ce01002046
:020000040000fa
:104078000022474b1a74474a03f500639a621a46ae
:10408800536813f0100ffbd14222434bc3f884202e
:104098001a46d2f8843013f0400ffad03f4b002272
:1040a8009a6377225a631a46d36b13f0040ffbd135
:1040b80002223a4b83f830201a46d36b13f0020fd2
:1040c800fbd1364a136c03f00303032bfad1012208
:1040d800334b5a711a46d37813f0010ffbd0314a8b
:1040e8002d4b1a621a46536813f0040ffbd12d4a60
:1040f800294b5a621a46536813f0080ffbd1412224
:10410800254bc3f890201a46d2f8903013f0400f90
:10411800fad04122204bc3f89c201a46d2f89c3092
:1041280013f0400ffad041221b4bc3f8a4201a46c3
:10413800d2f8a43013f0400ffad04122164bc3f83e
:10414800dc201a46d2f8dc3013f0400ffad04122b6
:10415800114bc3f8e4201a46d2f8e43013f0400fac
:10416800fad041220c4bc3f820211a46d2f820314c
:1041780013f0400ffad00a4b6ff07f421a6145f2f4
:10418800ff725a61084a9a6180221a62704700bf1a
:104198000014004006013000001c004000100040e0
:0c41a8000008004007010100568a0100d9
:020000040000fa
:1041b400222913d8dfe801f086144e6a1212121273
:1041c40012121212121212121212121212121212cb
:1041d400121212121212121212123c001220704702
:1041e40041f63243984205d041f6334398420ed00b
:1041f40012207047374b1b88002b65d0364b9b89a8
:1042040003f00203002bd4bf122000207047334b6d
:104214009b8913f0020f59d02e4b1b880bb112202f
:1042240070472f4b1b88002b0cbf122000207047b7
:1042340041f63343984201d012207047274b9b89a3
:1042440013f0020f44d0234b1b88002b0cbf122009
:104254000020704741f63243984205d041f633437b
:1042640098420ad0122070471b4b9b8903f0040329
:10427400002bd4bf122000207047184b9b8903f0f9
:104284000403002bd4bf12200020704741f63243b0
:10429400984205d041f6334398420ad01220704721
:1042a4000d4b9b8903f00803002bd4bf1220002080
:1042b40070470a4b9b8903f00803002bd4bf1220dc
:1042c400002070470020704712207047122070476a
:1042d40012207047dc00002024020020e0010020ae
:0442e4000a010020ab
:020000040000fa
:1042e8002de9f04784b08946904600230393029352
:1042f8008df807308df8063003238df80c30030a4b
:104308008df80d308df80e0004f0d0fe3b4c63683c
:10431800db6898470028fad1384b5b681c68032390
:1043280002aa194603a8a04704f08efe334c63681e
:10433800db6898470028fad1314b9df809201a709c
:104348009df80a205a702f4b1e7800252b4c012708
:1043580005e06368db6898470028fad10135b54263
:1043680008d063689b6839460df10600984704f049
:104378006bfeeee709f1ff39204cdff888a014e066
:1043880063689b6839460df10600984704f05cfea7
:104398006368db6898470028fad10135ae42efd14f
:1043a80008f1ff3818f0ff0822d0b8f1010f0cbf50
:1043b800ff2300238df8073063681d6801230df182
:1043c800060219460df10700a84704f03dfe636890
:1043d800db6898470028fad19df8063009f8013fb4
:1043e800b8f1010f04d09af8016000250127d5e73c
:1043f80004f052fe04b0bde8f08700bfec080020ce
:08440800640000207c08002084
:020000040000fa
:1044100010b586b000230093019302930393049395
:10442000059318226946882004f0c0fa3f4c9df895
:1044300001209df8003003eb022323809df8032028
:104440009df8023003eb022363609df805209df880
:10445000043003eb0223a3609df807209df806308b
:1044600003eb0223a3819df809209df8083003eb9c
:10447000022323619df80b209df80a3003eb0223f1
:1044800063619df80d209df80c3003eb0223a361be
:104490009df80f209df80e3003eb0223e3619df899
:1044a00011209df8103003eb022323629df81320a6
:1044b0009df8123003eb022363629df815209df8ee
:1044c000143003eb0223a3629df817209df81630e9
:1044d00003eb0223e362a12004f03ef984f83000ec
:1044e00007226946e12004f061fa9df801209df859
:1044f000003003eb022363639df8023084f8383008
:104500009df804309df8031003f00f0242ea0112f7
:10451000e2639df805201b0943ea021323649df81a
:10452000063084f8443006b010bd00bf1c000020e7
:020000040000fa
:1045300030b583b002a8002340f8043d04221146a0
:1045400001f072f9019b294c1a0a22701b0c9b0284
:1045500003f6ff73264a138004f086f823784bb1e4
:104560000024224d204603f047ff0134e4b22b78ab
:10457000a342f7d801f014fd00241e4b1c701e4b03
:104580001c701e4b1c701e4b1c701e4b1c701e4b57
:104590001c701e4b1c801e4b1c801e4b1c801e4b17
:1045a0001c801e4b1c801e4b1c801e4b1c701e4b07
:1045b0001c701e4b1c801e4b1c801e4b1c801e4bf7
:1045c0001c8001201d4b1870214600f03ff81c4b49
:1045d0001c801c4b1c701c4b1c7003f0abff04f0c8
:1045e000ebfd204603f0b4fe03b030bd20010020f7
:1045f0000e010020da000020080100201001002038
:10460000150100201a0100201c01002018010020c3
:10461000d8000020e0000020ea0000201601002061
:10462000f000002014010020e2000020de00002045
:10463000f2000020dc0000200a010020db00002046
:0c464000d6000020210100201b010020fa
:020000040000fa
:10464c0070b582b004460e463d4b1b7883421cbfae
:10465c003b4b18704ff6ff73994255d002ad45f89d
:10466c00041d04224ff49a71284601f03dff344b8f
:10467c001b78019304224ff49871284601f034ff03
:10468c00002e4bd100222f4b1a702e490b7843f081
:10469c0010020a7004f00f04013c072c13d8dfe859
:1046ac0004f00f232f271212122b274b1b78012bf0
:1046bc0042d01b2e0cbf02220d22224b1a70e4e7b3
:1046cc000021224b197021490b7843f010030b7019
:1046dc0043ea022302a840f8083d04224ff49c71df
:1046ec0001f002ff02b070bd0d21184b1970eae702
:1046fc000121164b1970e6e70f21144b1970e2e7f4
:10470c000e21124b1970dee70d4b1b7802a840f8f6
:10471c00043d04224ff4987101f0e6fe14f0100fe2
:10472c00b0d0a6f11a039bb2182bbed8084a22fab5
:10473c0003f313f0010fb8d00122024b1a70a4e757
:10474c00db00002021010020e2000020ec00002012
:04475c00010008014f
:020000040000fa
:1047600030b40c46002933d0002831d03e49097faf
:10477000002977d13c4908604a6000254d618d6170
:104780000d6139498c60002a37d0374ad360364ae8
:10479000012111773549c968d1689268914202d9df
:1047a0008c1a314d2c61314c646814f4706f34d123
:1047b000002a26d001782d4a11612b498a690132dd
:1047c0008a61002b43dd0120284b986130bc704783
:1047d000002b41d0002a41d02349097f00293fd135
:1047e000214908604a6000254d618d610d610028f6
:1047f000c7d100211c4a9160c7e700211a4ad16045
:10480000c5e7194a1269002adbd0ff21174a116156
:1048100015490a69013a0a61d3e75208124ca260ad
:1048200025696d0825614908e16032b101880f4aa8
:104830001161a2690132a261c3e7002dc1d0ff213d
:104840000a4a116108490a69013a0a61b9e7022274
:10485000064b9a610120b9e70020b7e70020b5e7d1
:104860000020b3e70020b1e76800002000340042d8
:020000040000fa
:1048700038b5364b1b7813b903f056f838bd03f042
:104880007ff810f4806f1dd0314b1b782bb1314b6a
:104890001b7813b10022304b1a80304b1b8d13b1a3
:1048a000013b2e4a13852d4b1a8d2d4b1a85012263
:1048b0002c4b1a7000222c4b1a802c4b1b7863b3a4
:1048c00002f0f6f8254b5b88012b38d0284b1b787b
:1048d0002bb1234b5b88012b34d0222b32d003f039
:1048e0004ff810f4806fc7d01c4a538d01339bb230
:1048f00053851b4a53851f4d1f4c0422298820468f
:1049000004f092fb29881d4b1b88194404390422aa
:1049100089b2204604f088fbaee7164d164c0422ff
:104920002988204604f080fb2988144b1b881944f1
:104930000439042289b2204604f076fbc2e703f072
:10494000c5fdc3e702f068fcc9e700bf1b010020fa
:10495000f4000020140100201e0100202402002089
:10496000e001002010010020d800002015010020e7
:104970001a010020e8000020f8000020dc000020e0
:020000040000fa
:1049800030b583b00020354b187003f035fd0120a1
:1049900003f032fd324b1868002851d004f096fc29
:1049a000304b186828b12e4b1b68984201d004f098
:1049b0008dfc2d4b186848b1294b1b68984205d0d7
:1049c000284b1b68834201d004f080fc01f034ffc7
:1049d0000024264b1c60224b1c60234b1c60214b87
:1049e0001c60234b1c7002ad45f8044d042240f6b8
:1049f0000c01284600f018ff019b23f0007301937f
:104a0000042240f60c01284601f074fd194b1c707d
:104a1000194b1c70194b1c70194b1c70194b1c70d6
:104a2000194c204603f088ff10b104f04ffcf8e762
:104a3000164c204603f080ff58b104f047fcf8e71d
:104a4000084b18680028b2d1074b18680028b7d166
:104a5000bce703f06ffd03b030bd00bfba0100201a
:104a6000dc010020c0010020c8010020d00100208e
:104a7000d8010020b9010020cc010020d501002080
:104a8000d40100204c0100208401002050010020ae
:020000040000fa
:104a90008a892de9f041054610070c465ad44b6827
:104aa000002b05dc0b6c002b02dc0020bde8f08144
:104ab000e66a002ef9d0002312f480522f682b6092
:104ac00033d0606da3895a0705d56368c01a636b3c
:104ad0000bb1236cc01a00230246e66a216a2846fd
:104ae000b047431ca38906d129681d294bd82b4afe
:104af000ca40d60747d500226260d90422692260e5
:104b000004d5421c01d12b6803b96065616b2f602d
:104b10000029cad004f14403994202d0284601f08a
:104b20002fff00206063bde8f081216a0123284641
:104b3000b047411cc6d12b68002bc3d01d2b01d020
:104b4000162b01d12f60b0e7a38943f04003a38166
:104b5000bde8f0810f69002fa7d093070e6808bf4a
:104b60004b690f6018bf0023a6eb07088b60b8f1f4
:104b7000000f9add43463a46216aa66a2846b047a6
:104b8000002807dca38943f04003a3814ff0ff30e6
:104b9000bde8f0810744a8eb0008e8e701004020e9
:020000040000fa
:104ba00008b50022344b1a80344b1b78002b3dd0c3
:104bb000334b1b781bb1334a138801331380324bbc
:104bc0001b883bb3314a128893421dd2304b1b885d
:104bd000002b2ed02f4b1b8d2f4a12899a4219d3ae
:104be00003332c4a138515e00023284a13802b4aef
:104bf00013850fe002f010fb294b1b88012b15d108
:104c00000022204b1a8011e0214b1b880bb301328c
:104c10001e4b1a8003f05afc194b1b7833b1204b02
:104c20001b881bb1174a12889a42e3d002f07cfe1f
:104c300008bd1c4a1288002aecd0002bead1174b81
:104c40001b8d154a12899a4207d30333134a1385e1
:104c500003e0144b1b88002bd9d002f091fe10f416
:104c6000006fc1d1094b1b88074a12889a42d1d3e1
:104c70000133064a1380cde7e00000201401002034
:104c80001a010020e40000200c0100201e01002079
:104c9000dc0000202402002018090020e001002090
:084ca000060100200a010020ba
:020000040000fa
:104ca8002de9f04f83b0009001913d4b1d88002df8
:104cb80068d04ff000094d469a464ff0010b07e0c7
:104cc80009f101091ffa89f9baf800304b4559d999
:104cd8000aeb4903588804f021f80646002840d01a
:104ce80083691f88002febd00137bfb25c46d6f826
:104cf80018803146e0b201f081f8c0f30e1018f8c0
:104d080010302b449db20134a4b2bc42efd1d7e796
:104d18000af1010a1ffa8afabbf8003053451ed976
:104d28000beb4a03588803f0f9ff064638b383694a
:104d38001f88002fecd00137bfb20124d6f8189095
:104d48003146e0b201f05af8c0f30e1019f81030ed
:104d58001d44adb20134a4b2bc42efd1d8e7002063
:104d680003e04ff0000845462520eb1ddb10009ab4
:104d78001380019ba3f8008003b0bde8f08f0025e5
:104d88002420f2e7ec1dc4f3cf08064b188828b19d
:104d98004ff0000a5546dff80cb0c1e70546e4e7d6
:084da800880900208c0900209d
:020000040000fa
:104db00000202020202020202020282828282820eb
:104dc00020202020202020202020202020202020e3
:104dd000208810101010101010101010101010104b
:104de000100404040404040404040410101010103b
:104df0001010414141414141010101010101010105
:104e00000101010101010101010101011010101056
:104e100010104242424242420202020202020202d6
:104e2000020202020202020202020202101010102a
:104e30002000000000000000000000000000000052
:104e40000000000000000000000000000000000062
:104e50000000000000000000000000000000000052
:104e60000000000000000000000000000000000042
:104e70000000000000000000000000000000000032
:104e80000000000000000000000000000000000022
:104e90000000000000000000000000000000000012
:104ea0000000000000000000000000000000000002
:014eb0000001
:020000040000fa
:024eb200fee719
:020000040000fa
:104eb400534d206f757470757420706172616d65e7
:104ec4007465720053796e6368726f6e697a617487
:104ed400696f6e2054797065004379636c65205462
:104ee400696d65000053796e6368726f6e697a61eb
:104ef40074696f6e20547970657320737570706f68
:104f040072746564004d696e696d756d20437963d3
:104f14006c652054696d650043616c6320616e6447
:104f240020436f70792054696d65000047657420d3
:104f34004379636c652054696d650044656c6179df
:104f44002054696d650053796e6330204379636c36
:104f5400652054696d6500534d2d4576656e74204a
:104f64004d6973736564004379636c652054696d9e
:104f74006520546f6f20536d616c6c0053686966d3
:104f8400742054696d6520546f6f2053686f727478
:104f9400000000000000000000000000000000000d
:104fa40000000053796e63204572726f7200ff0037
:020000040000fa
:104fb400534d20696e70757420706172616d6574f3
:104fc40065720053796e6368726f6e697a61746991
:104fd4006f6e2054797065004379636c6520546961
:104fe4006d65000053796e6368726f6e697a6174df
:104ff400696f6e20547970657320737570706f7269
:10500400746564004d696e696d756d204379636cd8
:10501400652054696d650043616c6320616e642092
:10502400436f70792054696d6500004765742043af
:1050340079636c652054696d650044656c61792001
:1050440054696d650053796e6330204379636c65f0
:105054002054696d6500534d2d4576656e74204d61
:105064006973736564004379636c652054696d6585
:1050740020546f6f20536d616c6c005368696674c3
:105084002054696d6520546f6f2053686f727400eb
:10509400000000000000000000000000000000000c
:1050a400000053796e63204572726f7200ff000036
:020000040000fa
:1050b40030b583b002a8002340f8043d0422334bea
:1050c400198800f0affb019ca3b20193304b1b780d
:1050d400012b0ad02f4b1b7813b92f4b1b78cbb164
:1050e40001222e4b1a7003b030bd0a2004f0e4f8fc
:1050f40005460028eed00021016004230380a98026
:105104000123c3800723038101f082fe284604f0b3
:10511400dbf8dfe70022214b1a70214b1888063494
:10512400a2b2824228bf0246144604f0c5f81d4bc1
:105134001860c0b12246154b198800f073fb02a811
:10514400002340f8083d042240f6040100f06afb05
:10515400009b0093009b13f4006f08d1114b186857
:1051640002f094f8bfe701220c4b1a70bbe70e481b
:1051740000230360054b1988094b1b881944043923
:10518400042289b200f04efbe8e700bfbc01002016
:10519400b8010020b9010020d5010020cc01002075
:0c51a400d6010020d0010020f8000020ff
:020000040000fa
:1051b00038b505460c4604f04ff908b30246611ea7
:1051c000c9b201eb85005388dbb243ea00239bb2ee
:1051d0005380022d15d0032d39d00021117151714a
:1051e0009171d171002111706ff05f01517023f046
:1051f000ff032a4909780b435380104601f0ceff84
:1052000038bd0329eed8dfe801f002020c110021bd
:105210001171102151714ff0ff3191711f21d17126
:10522000e0e71f4909889180d180dbe71c490988a4
:1052300039b100210a201071517101209071d17192
:10524000d0e70021117151719171d171cae7032921
:10525000c8d8dfe801f002020c1100211171102101
:1052600051714ff0ff3191711f21d171bae70d4992
:1052700009889180d180b5e70a49098839b10021b0
:105280000e201071517101209071d171aae7002197
:10529000117151719171d171a4e700bfdb00002041
:0852a000dc0000200a010020df
:020000040000fa
:1052a8002de9f04385b00f46164600230393029379
:1052b8008df8073002238df80c30030a8df80d3075
:1052c8008df80e0003f0f2fe2f4c6368db689847f8
:1052d8000028fad12c4b5b681c68032302aa1946e4
:1052e80003a8a04703f0b0fe274c6368db68984723
:1052f8000028fad1254b9df809201a709df80a203c
:105308005a70234b93f8128000251f4c4ff0010967
:105318000de063689b6849460df10700984703f064
:1053280093fe6368db6898470028fad10135454544
:10533800efd1154b5b685b6831463846984703f0f8
:1053480083fe114c6368db6898470028fad1012e68
:1053580015d00f4bde7c00250b4c01270de0636850
:105368009b6839460df10700984703f06dfe6368a6
:10537800db6898470028fad10135b542efd103f030
:105388008bfe05b0bde8f083ec0800206400002027
:045398007c0800206d
:020000040000fa
:10539c0038b5059c602954d000293bd0258905f4eb
:1053ac007f45258100284ed1e088c0f30b0040f4e6
:1053bc004050e080402925d104990139032910d8a7
:1053cc000a232370002363709df81030c3f104038b
:1053dc0042f0030242ea830245f040051543258161
:1053ec0043e00499994298bf049b0a332380bdf88b
:1053fc001030a381049b1b0ce38142f04102154346
:10540c00258132e00a2323700023637045f0600588
:10541c0025812ae0b8b9e388c3f30b0343f4405366
:10542c00e3800a23237000236370238943f0200355
:10543c0023811ae0e388c3f30b0343f44053e38066
:10544c0013e00028f6d00a23237000236370e3884e
:10545c00c3f30b0343f40053e380238943f080032d
:10546c002381064b53f82030e3600221204601f0e3
:10547c00cbfc10b1024b1c6038bd38bd80730000f2
:04548c00d00000202c
:020000040000fa
:1054900010b582b02a4a2024148000235380536020
:1054a00044f21f0090812749116153619383136275
:1054b0001385538582f84030234a1480538053600b
:1054c000908111615361938313621385538582f830
:1054d00040301e4a137003f099f920bb00231c4a88
:1054e00013701c4a13701c4a13801c4a13701c4a08
:1054f00013601c4a13601c4a13601c4a136002a804
:1055000040f8043d0422082100f08ef9019b13f0bd
:10551000080f0bd00022164b1a704ff47a62154b0d
:105520001a6002b010bd03f0adfbd7e70122104bab
:105530001a7004224ff411610f4800f075f9ece77e
:1055400024020020a0860100e00100206802002063
:105550008c0200208d020020be020020c00200202c
:105560009c0200207802002088020020a002002077
:0c557000040100209400002090000020a6
:020000040000fa
:10557c002de9f04791461f468a680b69ddf82080bb
:10558c009342b8bf1346c9f8003091f84320064641
:10559c000c4612b10133c9f800302368990642bf9a
:1055ac00d9f800300233c9f80030256815f006052b
:1055bc0007d104f1190ae368d9f800209b1a9d421f
:1055cc0029db94f843302268003318bf012392067c
:1055dc002ed404f1430239463046c047013021d065
:1055ec002368e568d9f8002003f00603042b08bff4
:1055fc00ad1aa36822690cbf25eae5750025934214
:10560c00c4bf9b1aed184ff000091a344d451bd13d
:10561c000020bde8f0870123524639463046c0478a
:10562c00013003d14ff0ff30bde8f0870135c2e700
:10563c00e1185a1c302081f84300224494f845109c
:10564c0082f843100233c4e7012322463946304620
:0c565c00c0470130e6d009f10109d7e792
:020000040000fa
:105668002de9f04184b01e465469e9b10f4693898b
:10567800c3f30323072b17d0092b24d0002e5ad0ad
:105688002e4b6c460fcb07c4237039460df1090029
:1056980002f0c6fd6b4607cb30607160b2601b78c4
:1056a80033734ff00c080ae0204603f01bfe1ffa84
:1056b80080f826b142462146304603f092fc404627
:1056c80004b0bde8f0811ffa81f8204603f00afe15
:1056d80001302518b8f1000fd0d0235c0233dbb2bb
:1056e800012bcbd9b8f1010f10d001240134a4b299
:1056f800284603f0f7fd01300544a045bed32b78ba
:105708000233dbb2012bb9d9a045efd1284603f00b
:10571800e9fd1ffa80f846b1b8f1000fb0d0424653
:105728002946304603f05dfcc9e7b8f1000f08bf11
:105738004ff00c08c3e74ff00c08c0e7fc08002046
:020000040000fa
:105748002d4b1b78002b56d02de9f04782b0174619
:105758000d468146294b1e683389dbb203f0e00a07
:1057680003f01004baf1400f0fd04ff000080022e8
:10577800214b1a70019600954346224651464846e9
:10578800fff708fe02b0bde8f0871d4bb3f80080b4
:10579800a8f110081ffa88f888450bd34b1e032b75
:1057a80020d806f10c008242e1d00a46394603f0bf
:1057b80018fcdce70123134a1370134a1370134bc8
:1057c8001c70134b19606022124b1a70124b1f6029
:1057d8004246394606f1100003f003fc0f4bc3f8ac
:1057e8000080c4e706f110008242c0d00a4639465c
:1057f80003f0f7fbbbe770470b0900209802002075
:10580800c4010020810200208e02002080020020b6
:10581800840200208f020020a00200207c020020c9
:020000040000fa
:10582800002a6ad02de9f04383b00d461746064694
:105838004ff0c0094ff004084ce0032c04d8012ca9
:105848008cbf022401241be08df804502b0a8df82c
:1058580005308df806408df8079003f0d5fd4246d7
:1058680001a94ff44170fff71bfd424601a94ff40f
:105878004070fef7adfa03f0cbfd2cb319e001241c
:105888008df804502b0a8df805308df806408df8f8
:10589800079003f0b9fd424601a94ff44170fff7a4
:1058a800fffc424601a94ff44070fef791fa03f05d
:1058b800affd01a9324611f8013b02f8013b931be9
:1058c800dbb2a342f7d31646a4b22544adb23c1bc3
:1058d800a7b27fb115f0010fd1d13c46042f28bfe4
:1058e8000424e4b215f0020fa7d0012c8cbf0224c7
:0c58f8000124c5e703b0bde8f083704751
:020000040000fa
:1059040008b5214b1b88002b35d1204b1b88002b5d
:1059140035d14ff2f33002f019fd00231c4a137005
:105924001c4a13701c4a13701c4a13701c4a1370cf
:105934001c4a13801c4a13801c4a13801c4a13807f
:105944001c4a13801c4a13801c4a13801c4a13806f
:105954001c4a1385538582f840301b4a13855385ae
:1059640082f84030194a1380194a1370194a137087
:10597400194a137008bd022002f03cfdc5e703205c
:1059840002f038fdc5e700bfdc0000200a0100205a
:10599400100100201b01002014010020f40000204d
